{
	"contract/SimpleStorage.sol": {
		"SimpleStorage": {
			"abi": [
				{
					"inputs": [],
					"name": "add",
					"outputs": [
						{
							"internalType": "uint256",
							"name": "",
							"type": "uint256"
						}
					],
					"stateMutability": "pure",
					"type": "function"
				},
				{
					"inputs": [
						{
							"internalType": "uint256",
							"name": "_favoriteNumber",
							"type": "uint256"
						},
						{
							"internalType": "string",
							"name": "_name",
							"type": "string"
						}
					],
					"name": "addPerson",
					"outputs": [],
					"stateMutability": "nonpayable",
					"type": "function"
				},
				{
					"inputs": [],
					"name": "bytes32Var",
					"outputs": [
						{
							"internalType": "bytes32",
							"name": "",
							"type": "bytes32"
						}
					],
					"stateMutability": "view",
					"type": "function"
				},
				{
					"inputs": [],
					"name": "favoriteNumber",
					"outputs": [
						{
							"internalType": "uint256",
							"name": "",
							"type": "uint256"
						}
					],
					"stateMutability": "view",
					"type": "function"
				},
				{
					"inputs": [],
					"name": "isOpen",
					"outputs": [
						{
							"internalType": "bool",
							"name": "",
							"type": "bool"
						}
					],
					"stateMutability": "view",
					"type": "function"
				},
				{
					"inputs": [
						{
							"internalType": "string",
							"name": "",
							"type": "string"
						}
					],
					"name": "nameToFavoriteNumber",
					"outputs": [
						{
							"internalType": "uint256",
							"name": "",
							"type": "uint256"
						}
					],
					"stateMutability": "view",
					"type": "function"
				},
				{
					"inputs": [
						{
							"internalType": "uint256",
							"name": "",
							"type": "uint256"
						}
					],
					"name": "people",
					"outputs": [
						{
							"internalType": "uint256",
							"name": "favoriteNumber",
							"type": "uint256"
						},
						{
							"internalType": "string",
							"name": "name",
							"type": "string"
						}
					],
					"stateMutability": "view",
					"type": "function"
				},
				{
					"inputs": [],
					"name": "person",
					"outputs": [
						{
							"internalType": "uint256",
							"name": "favoriteNumber",
							"type": "uint256"
						},
						{
							"internalType": "string",
							"name": "name",
							"type": "string"
						}
					],
					"stateMutability": "view",
					"type": "function"
				},
				{
					"inputs": [],
					"name": "retrieve",
					"outputs": [
						{
							"internalType": "uint256",
							"name": "",
							"type": "uint256"
						}
					],
					"stateMutability": "view",
					"type": "function"
				},
				{
					"inputs": [
						{
							"internalType": "uint256",
							"name": "_favoriteNumber",
							"type": "uint256"
						}
					],
					"name": "store",
					"outputs": [],
					"stateMutability": "nonpayable",
					"type": "function"
				}
			],
			"devdoc": {
				"kind": "dev",
				"methods": {},
				"version": 1
			},
			"evm": {
				"assembly": "    /* \"contract/SimpleStorage.sol\":101:1420  contract SimpleStorage {... */\n  mstore(0x40, 0x80)\n    /* \"contract/SimpleStorage.sol\":387:429  People({favoriteNumber: 2, name: \"erwin\"}) */\n  mload(0x40)\n  dup1\n  0x40\n  add\n  0x40\n  mstore\n  dup1\n    /* \"contract/SimpleStorage.sol\":411:412  2 */\n  0x02\n    /* \"contract/SimpleStorage.sol\":387:429  People({favoriteNumber: 2, name: \"erwin\"}) */\n  dup2\n  mstore\n  0x20\n  add\n  mload(0x40)\n  dup1\n  0x40\n  add\n  0x40\n  mstore\n  dup1\n  0x05\n  dup2\n  mstore\n  0x20\n  add\n  0x657277696e000000000000000000000000000000000000000000000000000000\n  dup2\n  mstore\n  pop\n  dup2\n  mstore\n  pop\n    /* \"contract/SimpleStorage.sol\":364:429  People public person = People({favoriteNumber: 2, name: \"erwin\"}) */\n  0x03\n  0x00\n  dup3\n  add\n  mload\n  dup2\n  0x00\n  add\n  sstore\n  0x20\n  dup3\n  add\n  mload\n  dup2\n  0x01\n  add\n  swap1\n  dup2\n  tag_1\n  swap2\n  swap1\n  tag_2\n  jump\t// in\ntag_1:\n  pop\n  pop\n  pop\n    /* \"contract/SimpleStorage.sol\":101:1420  contract SimpleStorage {... */\n  callvalue\n  dup1\n  iszero\n  tag_3\n  jumpi\n  0x00\n  dup1\n  revert\ntag_3:\n  pop\n  jump(tag_4)\n    /* \"#utility.yul\":7:106   */\ntag_5:\n    /* \"#utility.yul\":59:65   */\n  0x00\n    /* \"#utility.yul\":93:98   */\n  dup2\n    /* \"#utility.yul\":87:99   */\n  mload\n    /* \"#utility.yul\":77:99   */\n  swap1\n  pop\n    /* \"#utility.yul\":7:106   */\n  swap2\n  swap1\n  pop\n  jump\t// out\n    /* \"#utility.yul\":112:292   */\ntag_6:\n    /* \"#utility.yul\":160:237   */\n  0x4e487b7100000000000000000000000000000000000000000000000000000000\n    /* \"#utility.yul\":157:158   */\n  0x00\n    /* \"#utility.yul\":150:238   */\n  mstore\n    /* \"#utility.yul\":257:261   */\n  0x41\n    /* \"#utility.yul\":254:255   */\n  0x04\n    /* \"#utility.yul\":247:262   */\n  mstore\n    /* \"#utility.yul\":281:285   */\n  0x24\n    /* \"#utility.yul\":278:279   */\n  0x00\n    /* \"#utility.yul\":271:286   */\n  revert\n    /* \"#utility.yul\":298:478   */\ntag_7:\n    /* \"#utility.yul\":346:423   */\n  0x4e487b7100000000000000000000000000000000000000000000000000000000\n    /* \"#utility.yul\":343:344   */\n  0x00\n    /* \"#utility.yul\":336:424   */\n  mstore\n    /* \"#utility.yul\":443:447   */\n  0x22\n    /* \"#utility.yul\":440:441   */\n  0x04\n    /* \"#utility.yul\":433:448   */\n  mstore\n    /* \"#utility.yul\":467:471   */\n  0x24\n    /* \"#utility.yul\":464:465   */\n  0x00\n    /* \"#utility.yul\":457:472   */\n  revert\n    /* \"#utility.yul\":484:804   */\ntag_8:\n    /* \"#utility.yul\":528:534   */\n  0x00\n    /* \"#utility.yul\":565:566   */\n  0x02\n    /* \"#utility.yul\":559:563   */\n  dup3\n    /* \"#utility.yul\":555:567   */\n  div\n    /* \"#utility.yul\":545:567   */\n  swap1\n  pop\n    /* \"#utility.yul\":612:613   */\n  0x01\n    /* \"#utility.yul\":606:610   */\n  dup3\n    /* \"#utility.yul\":602:614   */\n  and\n    /* \"#utility.yul\":633:651   */\n  dup1\n    /* \"#utility.yul\":623:704   */\n  tag_30\n  jumpi\n    /* \"#utility.yul\":689:693   */\n  0x7f\n    /* \"#utility.yul\":681:687   */\n  dup3\n    /* \"#utility.yul\":677:694   */\n  and\n    /* \"#utility.yul\":667:694   */\n  swap2\n  pop\n    /* \"#utility.yul\":623:704   */\ntag_30:\n    /* \"#utility.yul\":751:753   */\n  0x20\n    /* \"#utility.yul\":743:749   */\n  dup3\n    /* \"#utility.yul\":740:754   */\n  lt\n    /* \"#utility.yul\":720:738   */\n  dup2\n    /* \"#utility.yul\":717:755   */\n  sub\n    /* \"#utility.yul\":714:798   */\n  tag_31\n  jumpi\n    /* \"#utility.yul\":770:788   */\n  tag_32\n  tag_7\n  jump\t// in\ntag_32:\n    /* \"#utility.yul\":714:798   */\ntag_31:\n    /* \"#utility.yul\":535:804   */\n  pop\n    /* \"#utility.yul\":484:804   */\n  swap2\n  swap1\n  pop\n  jump\t// out\n    /* \"#utility.yul\":810:951   */\ntag_9:\n    /* \"#utility.yul\":859:863   */\n  0x00\n    /* \"#utility.yul\":882:885   */\n  dup2\n    /* \"#utility.yul\":874:885   */\n  swap1\n  pop\n    /* \"#utility.yul\":905:908   */\n  dup2\n    /* \"#utility.yul\":902:903   */\n  0x00\n    /* \"#utility.yul\":895:909   */\n  mstore\n    /* \"#utility.yul\":939:943   */\n  0x20\n    /* \"#utility.yul\":936:937   */\n  0x00\n    /* \"#utility.yul\":926:944   */\n  keccak256\n    /* \"#utility.yul\":918:944   */\n  swap1\n  pop\n    /* \"#utility.yul\":810:951   */\n  swap2\n  swap1\n  pop\n  jump\t// out\n    /* \"#utility.yul\":957:1050   */\ntag_10:\n    /* \"#utility.yul\":994:1000   */\n  0x00\n    /* \"#utility.yul\":1041:1043   */\n  0x20\n    /* \"#utility.yul\":1036:1038   */\n  0x1f\n    /* \"#utility.yul\":1029:1034   */\n  dup4\n    /* \"#utility.yul\":1025:1039   */\n  add\n    /* \"#utility.yul\":1021:1044   */\n  div\n    /* \"#utility.yul\":1011:1044   */\n  swap1\n  pop\n    /* \"#utility.yul\":957:1050   */\n  swap2\n  swap1\n  pop\n  jump\t// out\n    /* \"#utility.yul\":1056:1163   */\ntag_11:\n    /* \"#utility.yul\":1100:1108   */\n  0x00\n    /* \"#utility.yul\":1150:1155   */\n  dup3\n    /* \"#utility.yul\":1144:1148   */\n  dup3\n    /* \"#utility.yul\":1140:1156   */\n  shl\n    /* \"#utility.yul\":1119:1156   */\n  swap1\n  pop\n    /* \"#utility.yul\":1056:1163   */\n  swap3\n  swap2\n  pop\n  pop\n  jump\t// out\n    /* \"#utility.yul\":1169:1562   */\ntag_12:\n    /* \"#utility.yul\":1238:1244   */\n  0x00\n    /* \"#utility.yul\":1288:1289   */\n  0x08\n    /* \"#utility.yul\":1276:1286   */\n  dup4\n    /* \"#utility.yul\":1272:1290   */\n  mul\n    /* \"#utility.yul\":1311:1408   */\n  tag_37\n    /* \"#utility.yul\":1341:1407   */\n  0xffffffffffffffffffffffffffffffffffffffffffffffffffffffffffffffff\n    /* \"#utility.yul\":1330:1339   */\n  dup3\n    /* \"#utility.yul\":1311:1408   */\n  tag_11\n  jump\t// in\ntag_37:\n    /* \"#utility.yul\":1429:1468   */\n  tag_38\n    /* \"#utility.yul\":1459:1467   */\n  dup7\n    /* \"#utility.yul\":1448:1457   */\n  dup4\n    /* \"#utility.yul\":1429:1468   */\n  tag_11\n  jump\t// in\ntag_38:\n    /* \"#utility.yul\":1417:1468   */\n  swap6\n  pop\n    /* \"#utility.yul\":1501:1505   */\n  dup1\n    /* \"#utility.yul\":1497:1506   */\n  not\n    /* \"#utility.yul\":1490:1495   */\n  dup5\n    /* \"#utility.yul\":1486:1507   */\n  and\n    /* \"#utility.yul\":1477:1507   */\n  swap4\n  pop\n    /* \"#utility.yul\":1550:1554   */\n  dup1\n    /* \"#utility.yul\":1540:1548   */\n  dup7\n    /* \"#utility.yul\":1536:1555   */\n  and\n    /* \"#utility.yul\":1529:1534   */\n  dup5\n    /* \"#utility.yul\":1526:1556   */\n  or\n    /* \"#utility.yul\":1516:1556   */\n  swap3\n  pop\n    /* \"#utility.yul\":1245:1562   */\n  pop\n  pop\n    /* \"#utility.yul\":1169:1562   */\n  swap4\n  swap3\n  pop\n  pop\n  pop\n  jump\t// out\n    /* \"#utility.yul\":1568:1645   */\ntag_13:\n    /* \"#utility.yul\":1605:1612   */\n  0x00\n    /* \"#utility.yul\":1634:1639   */\n  dup2\n    /* \"#utility.yul\":1623:1639   */\n  swap1\n  pop\n    /* \"#utility.yul\":1568:1645   */\n  swap2\n  swap1\n  pop\n  jump\t// out\n    /* \"#utility.yul\":1651:1711   */\ntag_14:\n    /* \"#utility.yul\":1679:1682   */\n  0x00\n    /* \"#utility.yul\":1700:1705   */\n  dup2\n    /* \"#utility.yul\":1693:1705   */\n  swap1\n  pop\n    /* \"#utility.yul\":1651:1711   */\n  swap2\n  swap1\n  pop\n  jump\t// out\n    /* \"#utility.yul\":1717:1859   */\ntag_15:\n    /* \"#utility.yul\":1767:1776   */\n  0x00\n    /* \"#utility.yul\":1800:1853   */\n  tag_42\n    /* \"#utility.yul\":1818:1852   */\n  tag_43\n    /* \"#utility.yul\":1827:1851   */\n  tag_44\n    /* \"#utility.yul\":1845:1850   */\n  dup5\n    /* \"#utility.yul\":1827:1851   */\n  tag_13\n  jump\t// in\ntag_44:\n    /* \"#utility.yul\":1818:1852   */\n  tag_14\n  jump\t// in\ntag_43:\n    /* \"#utility.yul\":1800:1853   */\n  tag_13\n  jump\t// in\ntag_42:\n    /* \"#utility.yul\":1787:1853   */\n  swap1\n  pop\n    /* \"#utility.yul\":1717:1859   */\n  swap2\n  swap1\n  pop\n  jump\t// out\n    /* \"#utility.yul\":1865:1940   */\ntag_16:\n    /* \"#utility.yul\":1908:1911   */\n  0x00\n    /* \"#utility.yul\":1929:1934   */\n  dup2\n    /* \"#utility.yul\":1922:1934   */\n  swap1\n  pop\n    /* \"#utility.yul\":1865:1940   */\n  swap2\n  swap1\n  pop\n  jump\t// out\n    /* \"#utility.yul\":1946:2215   */\ntag_17:\n    /* \"#utility.yul\":2056:2095   */\n  tag_47\n    /* \"#utility.yul\":2087:2094   */\n  dup4\n    /* \"#utility.yul\":2056:2095   */\n  tag_15\n  jump\t// in\ntag_47:\n    /* \"#utility.yul\":2117:2208   */\n  tag_48\n    /* \"#utility.yul\":2166:2207   */\n  tag_49\n    /* \"#utility.yul\":2190:2206   */\n  dup3\n    /* \"#utility.yul\":2166:2207   */\n  tag_16\n  jump\t// in\ntag_49:\n    /* \"#utility.yul\":2158:2164   */\n  dup5\n    /* \"#utility.yul\":2151:2155   */\n  dup5\n    /* \"#utility.yul\":2145:2156   */\n  sload\n    /* \"#utility.yul\":2117:2208   */\n  tag_12\n  jump\t// in\ntag_48:\n    /* \"#utility.yul\":2111:2115   */\n  dup3\n    /* \"#utility.yul\":2104:2209   */\n  sstore\n    /* \"#utility.yul\":2022:2215   */\n  pop\n    /* \"#utility.yul\":1946:2215   */\n  pop\n  pop\n  pop\n  jump\t// out\n    /* \"#utility.yul\":2221:2294   */\ntag_18:\n    /* \"#utility.yul\":2266:2269   */\n  0x00\n    /* \"#utility.yul\":2221:2294   */\n  swap1\n  jump\t// out\n    /* \"#utility.yul\":2300:2489   */\ntag_19:\n    /* \"#utility.yul\":2377:2409   */\n  tag_52\n  tag_18\n  jump\t// in\ntag_52:\n    /* \"#utility.yul\":2418:2483   */\n  tag_53\n    /* \"#utility.yul\":2476:2482   */\n  dup2\n    /* \"#utility.yul\":2468:2474   */\n  dup5\n    /* \"#utility.yul\":2462:2466   */\n  dup5\n    /* \"#utility.yul\":2418:2483   */\n  tag_17\n  jump\t// in\ntag_53:\n    /* \"#utility.yul\":2353:2489   */\n  pop\n    /* \"#utility.yul\":2300:2489   */\n  pop\n  pop\n  jump\t// out\n    /* \"#utility.yul\":2495:2681   */\ntag_20:\n    /* \"#utility.yul\":2555:2675   */\ntag_55:\n    /* \"#utility.yul\":2572:2575   */\n  dup2\n    /* \"#utility.yul\":2565:2570   */\n  dup2\n    /* \"#utility.yul\":2562:2576   */\n  lt\n    /* \"#utility.yul\":2555:2675   */\n  iszero\n  tag_57\n  jumpi\n    /* \"#utility.yul\":2626:2665   */\n  tag_58\n    /* \"#utility.yul\":2663:2664   */\n  0x00\n    /* \"#utility.yul\":2656:2661   */\n  dup3\n    /* \"#utility.yul\":2626:2665   */\n  tag_19\n  jump\t// in\ntag_58:\n    /* \"#utility.yul\":2599:2600   */\n  0x01\n    /* \"#utility.yul\":2592:2597   */\n  dup2\n    /* \"#utility.yul\":2588:2601   */\n  add\n    /* \"#utility.yul\":2579:2601   */\n  swap1\n  pop\n    /* \"#utility.yul\":2555:2675   */\n  jump(tag_55)\ntag_57:\n    /* \"#utility.yul\":2495:2681   */\n  pop\n  pop\n  jump\t// out\n    /* \"#utility.yul\":2687:3230   */\ntag_21:\n    /* \"#utility.yul\":2788:2790   */\n  0x1f\n    /* \"#utility.yul\":2783:2786   */\n  dup3\n    /* \"#utility.yul\":2780:2791   */\n  gt\n    /* \"#utility.yul\":2777:3223   */\n  iszero\n  tag_60\n  jumpi\n    /* \"#utility.yul\":2822:2860   */\n  tag_61\n    /* \"#utility.yul\":2854:2859   */\n  dup2\n    /* \"#utility.yul\":2822:2860   */\n  tag_9\n  jump\t// in\ntag_61:\n    /* \"#utility.yul\":2906:2935   */\n  tag_62\n    /* \"#utility.yul\":2924:2934   */\n  dup5\n    /* \"#utility.yul\":2906:2935   */\n  tag_10\n  jump\t// in\ntag_62:\n    /* \"#utility.yul\":2896:2904   */\n  dup2\n    /* \"#utility.yul\":2892:2936   */\n  add\n    /* \"#utility.yul\":3089:3091   */\n  0x20\n    /* \"#utility.yul\":3077:3087   */\n  dup6\n    /* \"#utility.yul\":3074:3092   */\n  lt\n    /* \"#utility.yul\":3071:3120   */\n  iszero\n  tag_63\n  jumpi\n    /* \"#utility.yul\":3110:3118   */\n  dup2\n    /* \"#utility.yul\":3095:3118   */\n  swap1\n  pop\n    /* \"#utility.yul\":3071:3120   */\ntag_63:\n    /* \"#utility.yul\":3133:3213   */\n  tag_64\n    /* \"#utility.yul\":3189:3211   */\n  tag_65\n    /* \"#utility.yul\":3207:3210   */\n  dup6\n    /* \"#utility.yul\":3189:3211   */\n  tag_10\n  jump\t// in\ntag_65:\n    /* \"#utility.yul\":3179:3187   */\n  dup4\n    /* \"#utility.yul\":3175:3212   */\n  add\n    /* \"#utility.yul\":3162:3173   */\n  dup3\n    /* \"#utility.yul\":3133:3213   */\n  tag_20\n  jump\t// in\ntag_64:\n    /* \"#utility.yul\":2792:3223   */\n  pop\n  pop\n    /* \"#utility.yul\":2777:3223   */\ntag_60:\n    /* \"#utility.yul\":2687:3230   */\n  pop\n  pop\n  pop\n  jump\t// out\n    /* \"#utility.yul\":3236:3353   */\ntag_22:\n    /* \"#utility.yul\":3290:3298   */\n  0x00\n    /* \"#utility.yul\":3340:3345   */\n  dup3\n    /* \"#utility.yul\":3334:3338   */\n  dup3\n    /* \"#utility.yul\":3330:3346   */\n  shr\n    /* \"#utility.yul\":3309:3346   */\n  swap1\n  pop\n    /* \"#utility.yul\":3236:3353   */\n  swap3\n  swap2\n  pop\n  pop\n  jump\t// out\n    /* \"#utility.yul\":3359:3528   */\ntag_23:\n    /* \"#utility.yul\":3403:3409   */\n  0x00\n    /* \"#utility.yul\":3436:3487   */\n  tag_68\n    /* \"#utility.yul\":3484:3485   */\n  0x00\n    /* \"#utility.yul\":3480:3486   */\n  not\n    /* \"#utility.yul\":3472:3477   */\n  dup5\n    /* \"#utility.yul\":3469:3470   */\n  0x08\n    /* \"#utility.yul\":3465:3478   */\n  mul\n    /* \"#utility.yul\":3436:3487   */\n  tag_22\n  jump\t// in\ntag_68:\n    /* \"#utility.yul\":3432:3488   */\n  not\n    /* \"#utility.yul\":3517:3521   */\n  dup1\n    /* \"#utility.yul\":3511:3515   */\n  dup4\n    /* \"#utility.yul\":3507:3522   */\n  and\n    /* \"#utility.yul\":3497:3522   */\n  swap2\n  pop\n    /* \"#utility.yul\":3410:3528   */\n  pop\n    /* \"#utility.yul\":3359:3528   */\n  swap3\n  swap2\n  pop\n  pop\n  jump\t// out\n    /* \"#utility.yul\":3533:3828   */\ntag_24:\n    /* \"#utility.yul\":3609:3613   */\n  0x00\n    /* \"#utility.yul\":3755:3784   */\n  tag_70\n    /* \"#utility.yul\":3780:3783   */\n  dup4\n    /* \"#utility.yul\":3774:3778   */\n  dup4\n    /* \"#utility.yul\":3755:3784   */\n  tag_23\n  jump\t// in\ntag_70:\n    /* \"#utility.yul\":3747:3784   */\n  swap2\n  pop\n    /* \"#utility.yul\":3817:3820   */\n  dup3\n    /* \"#utility.yul\":3814:3815   */\n  0x02\n    /* \"#utility.yul\":3810:3821   */\n  mul\n    /* \"#utility.yul\":3804:3808   */\n  dup3\n    /* \"#utility.yul\":3801:3822   */\n  or\n    /* \"#utility.yul\":3793:3822   */\n  swap1\n  pop\n    /* \"#utility.yul\":3533:3828   */\n  swap3\n  swap2\n  pop\n  pop\n  jump\t// out\n    /* \"#utility.yul\":3833:5228   */\ntag_2:\n    /* \"#utility.yul\":3950:3987   */\n  tag_72\n    /* \"#utility.yul\":3983:3986   */\n  dup3\n    /* \"#utility.yul\":3950:3987   */\n  tag_5\n  jump\t// in\ntag_72:\n    /* \"#utility.yul\":4052:4070   */\n  0xffffffffffffffff\n    /* \"#utility.yul\":4044:4050   */\n  dup2\n    /* \"#utility.yul\":4041:4071   */\n  gt\n    /* \"#utility.yul\":4038:4094   */\n  iszero\n  tag_73\n  jumpi\n    /* \"#utility.yul\":4074:4092   */\n  tag_74\n  tag_6\n  jump\t// in\ntag_74:\n    /* \"#utility.yul\":4038:4094   */\ntag_73:\n    /* \"#utility.yul\":4118:4156   */\n  tag_75\n    /* \"#utility.yul\":4150:4154   */\n  dup3\n    /* \"#utility.yul\":4144:4155   */\n  sload\n    /* \"#utility.yul\":4118:4156   */\n  tag_8\n  jump\t// in\ntag_75:\n    /* \"#utility.yul\":4203:4270   */\n  tag_76\n    /* \"#utility.yul\":4263:4269   */\n  dup3\n    /* \"#utility.yul\":4255:4261   */\n  dup3\n    /* \"#utility.yul\":4249:4253   */\n  dup6\n    /* \"#utility.yul\":4203:4270   */\n  tag_21\n  jump\t// in\ntag_76:\n    /* \"#utility.yul\":4297:4298   */\n  0x00\n    /* \"#utility.yul\":4321:4325   */\n  0x20\n    /* \"#utility.yul\":4308:4325   */\n  swap1\n  pop\n    /* \"#utility.yul\":4353:4355   */\n  0x1f\n    /* \"#utility.yul\":4345:4351   */\n  dup4\n    /* \"#utility.yul\":4342:4356   */\n  gt\n    /* \"#utility.yul\":4370:4371   */\n  0x01\n    /* \"#utility.yul\":4365:4983   */\n  dup2\n  eq\n  tag_78\n  jumpi\n    /* \"#utility.yul\":5027:5028   */\n  0x00\n    /* \"#utility.yul\":5044:5050   */\n  dup5\n    /* \"#utility.yul\":5041:5118   */\n  iszero\n  tag_79\n  jumpi\n    /* \"#utility.yul\":5093:5102   */\n  dup3\n    /* \"#utility.yul\":5088:5091   */\n  dup8\n    /* \"#utility.yul\":5084:5103   */\n  add\n    /* \"#utility.yul\":5078:5104   */\n  mload\n    /* \"#utility.yul\":5069:5104   */\n  swap1\n  pop\n    /* \"#utility.yul\":5041:5118   */\ntag_79:\n    /* \"#utility.yul\":5144:5211   */\n  tag_80\n    /* \"#utility.yul\":5204:5210   */\n  dup6\n    /* \"#utility.yul\":5197:5202   */\n  dup3\n    /* \"#utility.yul\":5144:5211   */\n  tag_24\n  jump\t// in\ntag_80:\n    /* \"#utility.yul\":5138:5142   */\n  dup7\n    /* \"#utility.yul\":5131:5212   */\n  sstore\n    /* \"#utility.yul\":5000:5222   */\n  pop\n    /* \"#utility.yul\":4335:5222   */\n  jump(tag_77)\n    /* \"#utility.yul\":4365:4983   */\ntag_78:\n    /* \"#utility.yul\":4417:4421   */\n  0x1f\n    /* \"#utility.yul\":4413:4422   */\n  not\n    /* \"#utility.yul\":4405:4411   */\n  dup5\n    /* \"#utility.yul\":4401:4423   */\n  and\n    /* \"#utility.yul\":4451:4488   */\n  tag_81\n    /* \"#utility.yul\":4483:4487   */\n  dup7\n    /* \"#utility.yul\":4451:4488   */\n  tag_9\n  jump\t// in\ntag_81:\n    /* \"#utility.yul\":4510:4511   */\n  0x00\n    /* \"#utility.yul\":4524:4732   */\ntag_82:\n    /* \"#utility.yul\":4538:4545   */\n  dup3\n    /* \"#utility.yul\":4535:4536   */\n  dup2\n    /* \"#utility.yul\":4532:4546   */\n  lt\n    /* \"#utility.yul\":4524:4732   */\n  iszero\n  tag_84\n  jumpi\n    /* \"#utility.yul\":4617:4626   */\n  dup5\n    /* \"#utility.yul\":4612:4615   */\n  dup10\n    /* \"#utility.yul\":4608:4627   */\n  add\n    /* \"#utility.yul\":4602:4628   */\n  mload\n    /* \"#utility.yul\":4594:4600   */\n  dup3\n    /* \"#utility.yul\":4587:4629   */\n  sstore\n    /* \"#utility.yul\":4668:4669   */\n  0x01\n    /* \"#utility.yul\":4660:4666   */\n  dup3\n    /* \"#utility.yul\":4656:4670   */\n  add\n    /* \"#utility.yul\":4646:4670   */\n  swap2\n  pop\n    /* \"#utility.yul\":4715:4717   */\n  0x20\n    /* \"#utility.yul\":4704:4713   */\n  dup6\n    /* \"#utility.yul\":4700:4718   */\n  add\n    /* \"#utility.yul\":4687:4718   */\n  swap5\n  pop\n    /* \"#utility.yul\":4561:4565   */\n  0x20\n    /* \"#utility.yul\":4558:4559   */\n  dup2\n    /* \"#utility.yul\":4554:4566   */\n  add\n    /* \"#utility.yul\":4549:4566   */\n  swap1\n  pop\n    /* \"#utility.yul\":4524:4732   */\n  jump(tag_82)\ntag_84:\n    /* \"#utility.yul\":4760:4766   */\n  dup7\n    /* \"#utility.yul\":4751:4758   */\n  dup4\n    /* \"#utility.yul\":4748:4767   */\n  lt\n    /* \"#utility.yul\":4745:4924   */\n  iszero\n  tag_85\n  jumpi\n    /* \"#utility.yul\":4818:4827   */\n  dup5\n    /* \"#utility.yul\":4813:4816   */\n  dup10\n    /* \"#utility.yul\":4809:4828   */\n  add\n    /* \"#utility.yul\":4803:4829   */\n  mload\n    /* \"#utility.yul\":4861:4909   */\n  tag_86\n    /* \"#utility.yul\":4903:4907   */\n  0x1f\n    /* \"#utility.yul\":4895:4901   */\n  dup10\n    /* \"#utility.yul\":4891:4908   */\n  and\n    /* \"#utility.yul\":4880:4889   */\n  dup3\n    /* \"#utility.yul\":4861:4909   */\n  tag_23\n  jump\t// in\ntag_86:\n    /* \"#utility.yul\":4853:4859   */\n  dup4\n    /* \"#utility.yul\":4846:4910   */\n  sstore\n    /* \"#utility.yul\":4768:4924   */\n  pop\n    /* \"#utility.yul\":4745:4924   */\ntag_85:\n    /* \"#utility.yul\":4970:4971   */\n  0x01\n    /* \"#utility.yul\":4966:4967   */\n  0x02\n    /* \"#utility.yul\":4958:4964   */\n  dup9\n    /* \"#utility.yul\":4954:4968   */\n  mul\n    /* \"#utility.yul\":4950:4972   */\n  add\n    /* \"#utility.yul\":4944:4948   */\n  dup9\n    /* \"#utility.yul\":4937:4973   */\n  sstore\n    /* \"#utility.yul\":4372:4983   */\n  pop\n  pop\n  pop\n    /* \"#utility.yul\":4335:5222   */\ntag_77:\n  pop\n    /* \"#utility.yul\":3925:5228   */\n  pop\n  pop\n  pop\n    /* \"#utility.yul\":3833:5228   */\n  pop\n  pop\n  jump\t// out\n    /* \"contract/SimpleStorage.sol\":101:1420  contract SimpleStorage {... */\ntag_4:\n  dataSize(sub_0)\n  dup1\n  dataOffset(sub_0)\n  0x00\n  codecopy\n  0x00\n  return\nstop\n\nsub_0: assembly {\n        /* \"contract/SimpleStorage.sol\":101:1420  contract SimpleStorage {... */\n      mstore(0x40, 0x80)\n      callvalue\n      dup1\n      iszero\n      tag_1\n      jumpi\n      0x00\n      dup1\n      revert\n    tag_1:\n      pop\n      jumpi(tag_2, lt(calldatasize, 0x04))\n      shr(0xe0, calldataload(0x00))\n      dup1\n      0x77ec2b55\n      gt\n      tag_13\n      jumpi\n      dup1\n      0x77ec2b55\n      eq\n      tag_8\n      jumpi\n      dup1\n      0x8bab8dd5\n      eq\n      tag_9\n      jumpi\n      dup1\n      0x9e7a13ad\n      eq\n      tag_10\n      jumpi\n      dup1\n      0xbc832d4e\n      eq\n      tag_11\n      jumpi\n      dup1\n      0xef0f3013\n      eq\n      tag_12\n      jumpi\n      jump(tag_2)\n    tag_13:\n      dup1\n      0x2e64cec1\n      eq\n      tag_3\n      jumpi\n      dup1\n      0x471f7cdf\n      eq\n      tag_4\n      jumpi\n      dup1\n      0x47535d7b\n      eq\n      tag_5\n      jumpi\n      dup1\n      0x4f2be91f\n      eq\n      tag_6\n      jumpi\n      dup1\n      0x6057361d\n      eq\n      tag_7\n      jumpi\n    tag_2:\n      0x00\n      dup1\n      revert\n        /* \"contract/SimpleStorage.sol\":704:792  function retrieve() public view returns (uint256) {... */\n    tag_3:\n      tag_14\n      tag_15\n      jump\t// in\n    tag_14:\n      mload(0x40)\n      tag_16\n      swap2\n      swap1\n      tag_17\n      jump\t// in\n    tag_16:\n      mload(0x40)\n      dup1\n      swap2\n      sub\n      swap1\n      return\n        /* \"contract/SimpleStorage.sol\":210:239  uint256 public favoriteNumber */\n    tag_4:\n      tag_18\n      tag_19\n      jump\t// in\n    tag_18:\n      mload(0x40)\n      tag_20\n      swap2\n      swap1\n      tag_17\n      jump\t// in\n    tag_20:\n      mload(0x40)\n      dup1\n      swap2\n      sub\n      swap1\n      return\n        /* \"contract/SimpleStorage.sol\":245:263  bool public isOpen */\n    tag_5:\n      tag_21\n      tag_22\n      jump\t// in\n    tag_21:\n      mload(0x40)\n      tag_23\n      swap2\n      swap1\n      tag_24\n      jump\t// in\n    tag_23:\n      mload(0x40)\n      dup1\n      swap2\n      sub\n      swap1\n      return\n        /* \"contract/SimpleStorage.sol\":841:917  function add() public pure returns (uint256) {... */\n    tag_6:\n      tag_25\n      tag_26\n      jump\t// in\n    tag_25:\n      mload(0x40)\n      tag_27\n      swap2\n      swap1\n      tag_17\n      jump\t// in\n    tag_27:\n      mload(0x40)\n      dup1\n      swap2\n      sub\n      swap1\n      return\n        /* \"contract/SimpleStorage.sol\":526:622  function store(uint256 _favoriteNumber) public {... */\n    tag_7:\n      tag_28\n      0x04\n      dup1\n      calldatasize\n      sub\n      dup2\n      add\n      swap1\n      tag_29\n      swap2\n      swap1\n      tag_30\n      jump\t// in\n    tag_29:\n      tag_31\n      jump\t// in\n    tag_28:\n      stop\n        /* \"contract/SimpleStorage.sol\":364:429  People public person = People({favoriteNumber: 2, name: \"erwin\"}) */\n    tag_8:\n      tag_32\n      tag_33\n      jump\t// in\n    tag_32:\n      mload(0x40)\n      tag_34\n      swap3\n      swap2\n      swap1\n      tag_35\n      jump\t// in\n    tag_34:\n      mload(0x40)\n      dup1\n      swap2\n      sub\n      swap1\n      return\n        /* \"contract/SimpleStorage.sol\":465:519  mapping(string => uint256) public nameToFavoriteNumber */\n    tag_9:\n      tag_36\n      0x04\n      dup1\n      calldatasize\n      sub\n      dup2\n      add\n      swap1\n      tag_37\n      swap2\n      swap1\n      tag_38\n      jump\t// in\n    tag_37:\n      tag_39\n      jump\t// in\n    tag_36:\n      mload(0x40)\n      tag_40\n      swap2\n      swap1\n      tag_17\n      jump\t// in\n    tag_40:\n      mload(0x40)\n      dup1\n      swap2\n      sub\n      swap1\n      return\n        /* \"contract/SimpleStorage.sol\":436:458  People[] public people */\n    tag_10:\n      tag_41\n      0x04\n      dup1\n      calldatasize\n      sub\n      dup2\n      add\n      swap1\n      tag_42\n      swap2\n      swap1\n      tag_30\n      jump\t// in\n    tag_42:\n      tag_43\n      jump\t// in\n    tag_41:\n      mload(0x40)\n      tag_44\n      swap3\n      swap2\n      swap1\n      tag_35\n      jump\t// in\n    tag_44:\n      mload(0x40)\n      dup1\n      swap2\n      sub\n      swap1\n      return\n        /* \"contract/SimpleStorage.sol\":1159:1416  function addPerson(uint256 _favoriteNumber, string memory _name) public {... */\n    tag_11:\n      tag_45\n      0x04\n      dup1\n      calldatasize\n      sub\n      dup2\n      add\n      swap1\n      tag_46\n      swap2\n      swap1\n      tag_47\n      jump\t// in\n    tag_46:\n      tag_48\n      jump\t// in\n    tag_45:\n      stop\n        /* \"contract/SimpleStorage.sol\":269:294  bytes32 public bytes32Var */\n    tag_12:\n      tag_49\n      tag_50\n      jump\t// in\n    tag_49:\n      mload(0x40)\n      tag_51\n      swap2\n      swap1\n      tag_52\n      jump\t// in\n    tag_51:\n      mload(0x40)\n      dup1\n      swap2\n      sub\n      swap1\n      return\n        /* \"contract/SimpleStorage.sol\":704:792  function retrieve() public view returns (uint256) {... */\n    tag_15:\n        /* \"contract/SimpleStorage.sol\":745:752  uint256 */\n      0x00\n        /* \"contract/SimpleStorage.sol\":771:785  favoriteNumber */\n      dup1\n      sload\n        /* \"contract/SimpleStorage.sol\":764:785  return favoriteNumber */\n      swap1\n      pop\n        /* \"contract/SimpleStorage.sol\":704:792  function retrieve() public view returns (uint256) {... */\n      swap1\n      jump\t// out\n        /* \"contract/SimpleStorage.sol\":210:239  uint256 public favoriteNumber */\n    tag_19:\n      sload(0x00)\n      dup2\n      jump\t// out\n        /* \"contract/SimpleStorage.sol\":245:263  bool public isOpen */\n    tag_22:\n      0x01\n      0x00\n      swap1\n      sload\n      swap1\n      0x0100\n      exp\n      swap1\n      div\n      0xff\n      and\n      dup2\n      jump\t// out\n        /* \"contract/SimpleStorage.sol\":841:917  function add() public pure returns (uint256) {... */\n    tag_26:\n        /* \"contract/SimpleStorage.sol\":877:884  uint256 */\n      0x00\n        /* \"contract/SimpleStorage.sol\":904:909  1 + 1 */\n      0x02\n        /* \"contract/SimpleStorage.sol\":896:910  return (1 + 1) */\n      swap1\n      pop\n        /* \"contract/SimpleStorage.sol\":841:917  function add() public pure returns (uint256) {... */\n      swap1\n      jump\t// out\n        /* \"contract/SimpleStorage.sol\":526:622  function store(uint256 _favoriteNumber) public {... */\n    tag_31:\n        /* \"contract/SimpleStorage.sol\":600:615  _favoriteNumber */\n      dup1\n        /* \"contract/SimpleStorage.sol\":583:597  favoriteNumber */\n      0x00\n        /* \"contract/SimpleStorage.sol\":583:615  favoriteNumber = _favoriteNumber */\n      dup2\n      swap1\n      sstore\n      pop\n        /* \"contract/SimpleStorage.sol\":526:622  function store(uint256 _favoriteNumber) public {... */\n      pop\n      jump\t// out\n        /* \"contract/SimpleStorage.sol\":364:429  People public person = People({favoriteNumber: 2, name: \"erwin\"}) */\n    tag_33:\n      0x03\n      dup1\n      0x00\n      add\n      sload\n      swap1\n      dup1\n      0x01\n      add\n      dup1\n      sload\n      tag_56\n      swap1\n      tag_57\n      jump\t// in\n    tag_56:\n      dup1\n      0x1f\n      add\n      0x20\n      dup1\n      swap2\n      div\n      mul\n      0x20\n      add\n      mload(0x40)\n      swap1\n      dup2\n      add\n      0x40\n      mstore\n      dup1\n      swap3\n      swap2\n      swap1\n      dup2\n      dup2\n      mstore\n      0x20\n      add\n      dup3\n      dup1\n      sload\n      tag_58\n      swap1\n      tag_57\n      jump\t// in\n    tag_58:\n      dup1\n      iszero\n      tag_59\n      jumpi\n      dup1\n      0x1f\n      lt\n      tag_60\n      jumpi\n      0x0100\n      dup1\n      dup4\n      sload\n      div\n      mul\n      dup4\n      mstore\n      swap2\n      0x20\n      add\n      swap2\n      jump(tag_59)\n    tag_60:\n      dup3\n      add\n      swap2\n      swap1\n      0x00\n      mstore\n      keccak256(0x00, 0x20)\n      swap1\n    tag_61:\n      dup2\n      sload\n      dup2\n      mstore\n      swap1\n      0x01\n      add\n      swap1\n      0x20\n      add\n      dup1\n      dup4\n      gt\n      tag_61\n      jumpi\n      dup3\n      swap1\n      sub\n      0x1f\n      and\n      dup3\n      add\n      swap2\n    tag_59:\n      pop\n      pop\n      pop\n      pop\n      pop\n      swap1\n      pop\n      dup3\n      jump\t// out\n        /* \"contract/SimpleStorage.sol\":465:519  mapping(string => uint256) public nameToFavoriteNumber */\n    tag_39:\n      0x06\n      dup2\n      dup1\n      mload\n      0x20\n      dup2\n      add\n      dup3\n      add\n      dup1\n      mload\n      dup5\n      dup3\n      mstore\n      0x20\n      dup4\n      add\n      0x20\n      dup6\n      add\n      keccak256\n      dup2\n      dup4\n      mstore\n      dup1\n      swap6\n      pop\n      pop\n      pop\n      pop\n      pop\n      pop\n      0x00\n      swap2\n      pop\n      swap1\n      pop\n      sload\n      dup2\n      jump\t// out\n        /* \"contract/SimpleStorage.sol\":436:458  People[] public people */\n    tag_43:\n      0x05\n      dup2\n      dup2\n      sload\n      dup2\n      lt\n      tag_62\n      jumpi\n      0x00\n      dup1\n      revert\n    tag_62:\n      swap1\n      0x00\n      mstore\n      keccak256(0x00, 0x20)\n      swap1\n      0x02\n      mul\n      add\n      0x00\n      swap2\n      pop\n      swap1\n      pop\n      dup1\n      0x00\n      add\n      sload\n      swap1\n      dup1\n      0x01\n      add\n      dup1\n      sload\n      tag_64\n      swap1\n      tag_57\n      jump\t// in\n    tag_64:\n      dup1\n      0x1f\n      add\n      0x20\n      dup1\n      swap2\n      div\n      mul\n      0x20\n      add\n      mload(0x40)\n      swap1\n      dup2\n      add\n      0x40\n      mstore\n      dup1\n      swap3\n      swap2\n      swap1\n      dup2\n      dup2\n      mstore\n      0x20\n      add\n      dup3\n      dup1\n      sload\n      tag_65\n      swap1\n      tag_57\n      jump\t// in\n    tag_65:\n      dup1\n      iszero\n      tag_66\n      jumpi\n      dup1\n      0x1f\n      lt\n      tag_67\n      jumpi\n      0x0100\n      dup1\n      dup4\n      sload\n      div\n      mul\n      dup4\n      mstore\n      swap2\n      0x20\n      add\n      swap2\n      jump(tag_66)\n    tag_67:\n      dup3\n      add\n      swap2\n      swap1\n      0x00\n      mstore\n      keccak256(0x00, 0x20)\n      swap1\n    tag_68:\n      dup2\n      sload\n      dup2\n      mstore\n      swap1\n      0x01\n      add\n      swap1\n      0x20\n      add\n      dup1\n      dup4\n      gt\n      tag_68\n      jumpi\n      dup3\n      swap1\n      sub\n      0x1f\n      and\n      dup3\n      add\n      swap2\n    tag_66:\n      pop\n      pop\n      pop\n      pop\n      pop\n      swap1\n      pop\n      dup3\n      jump\t// out\n        /* \"contract/SimpleStorage.sol\":1159:1416  function addPerson(uint256 _favoriteNumber, string memory _name) public {... */\n    tag_48:\n        /* \"contract/SimpleStorage.sol\":1311:1317  people */\n      0x05\n        /* \"contract/SimpleStorage.sol\":1323:1353  People(_favoriteNumber, _name) */\n      mload(0x40)\n      dup1\n      0x40\n      add\n      0x40\n      mstore\n      dup1\n        /* \"contract/SimpleStorage.sol\":1330:1345  _favoriteNumber */\n      dup5\n        /* \"contract/SimpleStorage.sol\":1323:1353  People(_favoriteNumber, _name) */\n      dup2\n      mstore\n      0x20\n      add\n        /* \"contract/SimpleStorage.sol\":1347:1352  _name */\n      dup4\n        /* \"contract/SimpleStorage.sol\":1323:1353  People(_favoriteNumber, _name) */\n      dup2\n      mstore\n      pop\n        /* \"contract/SimpleStorage.sol\":1311:1354  people.push(People(_favoriteNumber, _name)) */\n      swap1\n      dup1\n      0x01\n      dup2\n      sload\n      add\n      dup1\n      dup3\n      sstore\n      dup1\n      swap2\n      pop\n      pop\n      0x01\n      swap1\n      sub\n      swap1\n      0x00\n      mstore\n      keccak256(0x00, 0x20)\n      swap1\n      0x02\n      mul\n      add\n      0x00\n      swap1\n      swap2\n      swap1\n      swap2\n      swap1\n      swap2\n      pop\n      0x00\n      dup3\n      add\n      mload\n      dup2\n      0x00\n      add\n      sstore\n      0x20\n      dup3\n      add\n      mload\n      dup2\n      0x01\n      add\n      swap1\n      dup2\n      tag_71\n      swap2\n      swap1\n      tag_72\n      jump\t// in\n    tag_71:\n      pop\n      pop\n      pop\n        /* \"contract/SimpleStorage.sol\":1394:1409  _favoriteNumber */\n      dup2\n        /* \"contract/SimpleStorage.sol\":1364:1384  nameToFavoriteNumber */\n      0x06\n        /* \"contract/SimpleStorage.sol\":1385:1390  _name */\n      dup3\n        /* \"contract/SimpleStorage.sol\":1364:1391  nameToFavoriteNumber[_name] */\n      mload(0x40)\n      tag_73\n      swap2\n      swap1\n      tag_74\n      jump\t// in\n    tag_73:\n      swap1\n      dup2\n      mstore\n      0x20\n      add\n      mload(0x40)\n      dup1\n      swap2\n      sub\n      swap1\n      keccak256\n        /* \"contract/SimpleStorage.sol\":1364:1409  nameToFavoriteNumber[_name] = _favoriteNumber */\n      dup2\n      swap1\n      sstore\n      pop\n        /* \"contract/SimpleStorage.sol\":1159:1416  function addPerson(uint256 _favoriteNumber, string memory _name) public {... */\n      pop\n      pop\n      jump\t// out\n        /* \"contract/SimpleStorage.sol\":269:294  bytes32 public bytes32Var */\n    tag_50:\n      sload(0x02)\n      dup2\n      jump\t// out\n        /* \"#utility.yul\":7:84   */\n    tag_75:\n        /* \"#utility.yul\":44:51   */\n      0x00\n        /* \"#utility.yul\":73:78   */\n      dup2\n        /* \"#utility.yul\":62:78   */\n      swap1\n      pop\n        /* \"#utility.yul\":7:84   */\n      swap2\n      swap1\n      pop\n      jump\t// out\n        /* \"#utility.yul\":90:208   */\n    tag_76:\n        /* \"#utility.yul\":177:201   */\n      tag_121\n        /* \"#utility.yul\":195:200   */\n      dup2\n        /* \"#utility.yul\":177:201   */\n      tag_75\n      jump\t// in\n    tag_121:\n        /* \"#utility.yul\":172:175   */\n      dup3\n        /* \"#utility.yul\":165:202   */\n      mstore\n        /* \"#utility.yul\":90:208   */\n      pop\n      pop\n      jump\t// out\n        /* \"#utility.yul\":214:436   */\n    tag_17:\n        /* \"#utility.yul\":307:311   */\n      0x00\n        /* \"#utility.yul\":345:347   */\n      0x20\n        /* \"#utility.yul\":334:343   */\n      dup3\n        /* \"#utility.yul\":330:348   */\n      add\n        /* \"#utility.yul\":322:348   */\n      swap1\n      pop\n        /* \"#utility.yul\":358:429   */\n      tag_123\n        /* \"#utility.yul\":426:427   */\n      0x00\n        /* \"#utility.yul\":415:424   */\n      dup4\n        /* \"#utility.yul\":411:428   */\n      add\n        /* \"#utility.yul\":402:408   */\n      dup5\n        /* \"#utility.yul\":358:429   */\n      tag_76\n      jump\t// in\n    tag_123:\n        /* \"#utility.yul\":214:436   */\n      swap3\n      swap2\n      pop\n      pop\n      jump\t// out\n        /* \"#utility.yul\":442:532   */\n    tag_77:\n        /* \"#utility.yul\":476:483   */\n      0x00\n        /* \"#utility.yul\":519:524   */\n      dup2\n        /* \"#utility.yul\":512:525   */\n      iszero\n        /* \"#utility.yul\":505:526   */\n      iszero\n        /* \"#utility.yul\":494:526   */\n      swap1\n      pop\n        /* \"#utility.yul\":442:532   */\n      swap2\n      swap1\n      pop\n      jump\t// out\n        /* \"#utility.yul\":538:647   */\n    tag_78:\n        /* \"#utility.yul\":619:640   */\n      tag_126\n        /* \"#utility.yul\":634:639   */\n      dup2\n        /* \"#utility.yul\":619:640   */\n      tag_77\n      jump\t// in\n    tag_126:\n        /* \"#utility.yul\":614:617   */\n      dup3\n        /* \"#utility.yul\":607:641   */\n      mstore\n        /* \"#utility.yul\":538:647   */\n      pop\n      pop\n      jump\t// out\n        /* \"#utility.yul\":653:863   */\n    tag_24:\n        /* \"#utility.yul\":740:744   */\n      0x00\n        /* \"#utility.yul\":778:780   */\n      0x20\n        /* \"#utility.yul\":767:776   */\n      dup3\n        /* \"#utility.yul\":763:781   */\n      add\n        /* \"#utility.yul\":755:781   */\n      swap1\n      pop\n        /* \"#utility.yul\":791:856   */\n      tag_128\n        /* \"#utility.yul\":853:854   */\n      0x00\n        /* \"#utility.yul\":842:851   */\n      dup4\n        /* \"#utility.yul\":838:855   */\n      add\n        /* \"#utility.yul\":829:835   */\n      dup5\n        /* \"#utility.yul\":791:856   */\n      tag_78\n      jump\t// in\n    tag_128:\n        /* \"#utility.yul\":653:863   */\n      swap3\n      swap2\n      pop\n      pop\n      jump\t// out\n        /* \"#utility.yul\":869:944   */\n    tag_79:\n        /* \"#utility.yul\":902:908   */\n      0x00\n        /* \"#utility.yul\":935:937   */\n      0x40\n        /* \"#utility.yul\":929:938   */\n      mload\n        /* \"#utility.yul\":919:938   */\n      swap1\n      pop\n        /* \"#utility.yul\":869:944   */\n      swap1\n      jump\t// out\n        /* \"#utility.yul\":950:1067   */\n    tag_80:\n        /* \"#utility.yul\":1059:1060   */\n      0x00\n        /* \"#utility.yul\":1056:1057   */\n      dup1\n        /* \"#utility.yul\":1049:1061   */\n      revert\n        /* \"#utility.yul\":1073:1190   */\n    tag_81:\n        /* \"#utility.yul\":1182:1183   */\n      0x00\n        /* \"#utility.yul\":1179:1180   */\n      dup1\n        /* \"#utility.yul\":1172:1184   */\n      revert\n        /* \"#utility.yul\":1196:1318   */\n    tag_82:\n        /* \"#utility.yul\":1269:1293   */\n      tag_133\n        /* \"#utility.yul\":1287:1292   */\n      dup2\n        /* \"#utility.yul\":1269:1293   */\n      tag_75\n      jump\t// in\n    tag_133:\n        /* \"#utility.yul\":1262:1267   */\n      dup2\n        /* \"#utility.yul\":1259:1294   */\n      eq\n        /* \"#utility.yul\":1249:1312   */\n      tag_134\n      jumpi\n        /* \"#utility.yul\":1308:1309   */\n      0x00\n        /* \"#utility.yul\":1305:1306   */\n      dup1\n        /* \"#utility.yul\":1298:1310   */\n      revert\n        /* \"#utility.yul\":1249:1312   */\n    tag_134:\n        /* \"#utility.yul\":1196:1318   */\n      pop\n      jump\t// out\n        /* \"#utility.yul\":1324:1463   */\n    tag_83:\n        /* \"#utility.yul\":1370:1375   */\n      0x00\n        /* \"#utility.yul\":1408:1414   */\n      dup2\n        /* \"#utility.yul\":1395:1415   */\n      calldataload\n        /* \"#utility.yul\":1386:1415   */\n      swap1\n      pop\n        /* \"#utility.yul\":1424:1457   */\n      tag_136\n        /* \"#utility.yul\":1451:1456   */\n      dup2\n        /* \"#utility.yul\":1424:1457   */\n      tag_82\n      jump\t// in\n    tag_136:\n        /* \"#utility.yul\":1324:1463   */\n      swap3\n      swap2\n      pop\n      pop\n      jump\t// out\n        /* \"#utility.yul\":1469:1798   */\n    tag_30:\n        /* \"#utility.yul\":1528:1534   */\n      0x00\n        /* \"#utility.yul\":1577:1579   */\n      0x20\n        /* \"#utility.yul\":1565:1574   */\n      dup3\n        /* \"#utility.yul\":1556:1563   */\n      dup5\n        /* \"#utility.yul\":1552:1575   */\n      sub\n        /* \"#utility.yul\":1548:1580   */\n      slt\n        /* \"#utility.yul\":1545:1664   */\n      iszero\n      tag_138\n      jumpi\n        /* \"#utility.yul\":1583:1662   */\n      tag_139\n      tag_80\n      jump\t// in\n    tag_139:\n        /* \"#utility.yul\":1545:1664   */\n    tag_138:\n        /* \"#utility.yul\":1703:1704   */\n      0x00\n        /* \"#utility.yul\":1728:1781   */\n      tag_140\n        /* \"#utility.yul\":1773:1780   */\n      dup5\n        /* \"#utility.yul\":1764:1770   */\n      dup3\n        /* \"#utility.yul\":1753:1762   */\n      dup6\n        /* \"#utility.yul\":1749:1771   */\n      add\n        /* \"#utility.yul\":1728:1781   */\n      tag_83\n      jump\t// in\n    tag_140:\n        /* \"#utility.yul\":1718:1781   */\n      swap2\n      pop\n        /* \"#utility.yul\":1674:1791   */\n      pop\n        /* \"#utility.yul\":1469:1798   */\n      swap3\n      swap2\n      pop\n      pop\n      jump\t// out\n        /* \"#utility.yul\":1804:1903   */\n    tag_84:\n        /* \"#utility.yul\":1856:1862   */\n      0x00\n        /* \"#utility.yul\":1890:1895   */\n      dup2\n        /* \"#utility.yul\":1884:1896   */\n      mload\n        /* \"#utility.yul\":1874:1896   */\n      swap1\n      pop\n        /* \"#utility.yul\":1804:1903   */\n      swap2\n      swap1\n      pop\n      jump\t// out\n        /* \"#utility.yul\":1909:2078   */\n    tag_85:\n        /* \"#utility.yul\":1993:2004   */\n      0x00\n        /* \"#utility.yul\":2027:2033   */\n      dup3\n        /* \"#utility.yul\":2022:2025   */\n      dup3\n        /* \"#utility.yul\":2015:2034   */\n      mstore\n        /* \"#utility.yul\":2067:2071   */\n      0x20\n        /* \"#utility.yul\":2062:2065   */\n      dup3\n        /* \"#utility.yul\":2058:2072   */\n      add\n        /* \"#utility.yul\":2043:2072   */\n      swap1\n      pop\n        /* \"#utility.yul\":1909:2078   */\n      swap3\n      swap2\n      pop\n      pop\n      jump\t// out\n        /* \"#utility.yul\":2084:2330   */\n    tag_86:\n        /* \"#utility.yul\":2165:2166   */\n      0x00\n        /* \"#utility.yul\":2175:2288   */\n    tag_144:\n        /* \"#utility.yul\":2189:2195   */\n      dup4\n        /* \"#utility.yul\":2186:2187   */\n      dup2\n        /* \"#utility.yul\":2183:2196   */\n      lt\n        /* \"#utility.yul\":2175:2288   */\n      iszero\n      tag_146\n      jumpi\n        /* \"#utility.yul\":2274:2275   */\n      dup1\n        /* \"#utility.yul\":2269:2272   */\n      dup3\n        /* \"#utility.yul\":2265:2276   */\n      add\n        /* \"#utility.yul\":2259:2277   */\n      mload\n        /* \"#utility.yul\":2255:2256   */\n      dup2\n        /* \"#utility.yul\":2250:2253   */\n      dup5\n        /* \"#utility.yul\":2246:2257   */\n      add\n        /* \"#utility.yul\":2239:2278   */\n      mstore\n        /* \"#utility.yul\":2211:2213   */\n      0x20\n        /* \"#utility.yul\":2208:2209   */\n      dup2\n        /* \"#utility.yul\":2204:2214   */\n      add\n        /* \"#utility.yul\":2199:2214   */\n      swap1\n      pop\n        /* \"#utility.yul\":2175:2288   */\n      jump(tag_144)\n    tag_146:\n        /* \"#utility.yul\":2322:2323   */\n      0x00\n        /* \"#utility.yul\":2313:2319   */\n      dup5\n        /* \"#utility.yul\":2308:2311   */\n      dup5\n        /* \"#utility.yul\":2304:2320   */\n      add\n        /* \"#utility.yul\":2297:2324   */\n      mstore\n        /* \"#utility.yul\":2146:2330   */\n      pop\n        /* \"#utility.yul\":2084:2330   */\n      pop\n      pop\n      pop\n      jump\t// out\n        /* \"#utility.yul\":2336:2438   */\n    tag_87:\n        /* \"#utility.yul\":2377:2383   */\n      0x00\n        /* \"#utility.yul\":2428:2430   */\n      0x1f\n        /* \"#utility.yul\":2424:2431   */\n      not\n        /* \"#utility.yul\":2419:2421   */\n      0x1f\n        /* \"#utility.yul\":2412:2417   */\n      dup4\n        /* \"#utility.yul\":2408:2422   */\n      add\n        /* \"#utility.yul\":2404:2432   */\n      and\n        /* \"#utility.yul\":2394:2432   */\n      swap1\n      pop\n        /* \"#utility.yul\":2336:2438   */\n      swap2\n      swap1\n      pop\n      jump\t// out\n        /* \"#utility.yul\":2444:2821   */\n    tag_88:\n        /* \"#utility.yul\":2532:2535   */\n      0x00\n        /* \"#utility.yul\":2560:2599   */\n      tag_149\n        /* \"#utility.yul\":2593:2598   */\n      dup3\n        /* \"#utility.yul\":2560:2599   */\n      tag_84\n      jump\t// in\n    tag_149:\n        /* \"#utility.yul\":2615:2686   */\n      tag_150\n        /* \"#utility.yul\":2679:2685   */\n      dup2\n        /* \"#utility.yul\":2674:2677   */\n      dup6\n        /* \"#utility.yul\":2615:2686   */\n      tag_85\n      jump\t// in\n    tag_150:\n        /* \"#utility.yul\":2608:2686   */\n      swap4\n      pop\n        /* \"#utility.yul\":2695:2760   */\n      tag_151\n        /* \"#utility.yul\":2753:2759   */\n      dup2\n        /* \"#utility.yul\":2748:2751   */\n      dup6\n        /* \"#utility.yul\":2741:2745   */\n      0x20\n        /* \"#utility.yul\":2734:2739   */\n      dup7\n        /* \"#utility.yul\":2730:2746   */\n      add\n        /* \"#utility.yul\":2695:2760   */\n      tag_86\n      jump\t// in\n    tag_151:\n        /* \"#utility.yul\":2785:2814   */\n      tag_152\n        /* \"#utility.yul\":2807:2813   */\n      dup2\n        /* \"#utility.yul\":2785:2814   */\n      tag_87\n      jump\t// in\n    tag_152:\n        /* \"#utility.yul\":2780:2783   */\n      dup5\n        /* \"#utility.yul\":2776:2815   */\n      add\n        /* \"#utility.yul\":2769:2815   */\n      swap2\n      pop\n        /* \"#utility.yul\":2536:2821   */\n      pop\n        /* \"#utility.yul\":2444:2821   */\n      swap3\n      swap2\n      pop\n      pop\n      jump\t// out\n        /* \"#utility.yul\":2827:3250   */\n    tag_35:\n        /* \"#utility.yul\":2968:2972   */\n      0x00\n        /* \"#utility.yul\":3006:3008   */\n      0x40\n        /* \"#utility.yul\":2995:3004   */\n      dup3\n        /* \"#utility.yul\":2991:3009   */\n      add\n        /* \"#utility.yul\":2983:3009   */\n      swap1\n      pop\n        /* \"#utility.yul\":3019:3090   */\n      tag_154\n        /* \"#utility.yul\":3087:3088   */\n      0x00\n        /* \"#utility.yul\":3076:3085   */\n      dup4\n        /* \"#utility.yul\":3072:3089   */\n      add\n        /* \"#utility.yul\":3063:3069   */\n      dup6\n        /* \"#utility.yul\":3019:3090   */\n      tag_76\n      jump\t// in\n    tag_154:\n        /* \"#utility.yul\":3137:3146   */\n      dup2\n        /* \"#utility.yul\":3131:3135   */\n      dup2\n        /* \"#utility.yul\":3127:3147   */\n      sub\n        /* \"#utility.yul\":3122:3124   */\n      0x20\n        /* \"#utility.yul\":3111:3120   */\n      dup4\n        /* \"#utility.yul\":3107:3125   */\n      add\n        /* \"#utility.yul\":3100:3148   */\n      mstore\n        /* \"#utility.yul\":3165:3243   */\n      tag_155\n        /* \"#utility.yul\":3238:3242   */\n      dup2\n        /* \"#utility.yul\":3229:3235   */\n      dup5\n        /* \"#utility.yul\":3165:3243   */\n      tag_88\n      jump\t// in\n    tag_155:\n        /* \"#utility.yul\":3157:3243   */\n      swap1\n      pop\n        /* \"#utility.yul\":2827:3250   */\n      swap4\n      swap3\n      pop\n      pop\n      pop\n      jump\t// out\n        /* \"#utility.yul\":3256:3373   */\n    tag_89:\n        /* \"#utility.yul\":3365:3366   */\n      0x00\n        /* \"#utility.yul\":3362:3363   */\n      dup1\n        /* \"#utility.yul\":3355:3367   */\n      revert\n        /* \"#utility.yul\":3379:3496   */\n    tag_90:\n        /* \"#utility.yul\":3488:3489   */\n      0x00\n        /* \"#utility.yul\":3485:3486   */\n      dup1\n        /* \"#utility.yul\":3478:3490   */\n      revert\n        /* \"#utility.yul\":3502:3682   */\n    tag_91:\n        /* \"#utility.yul\":3550:3627   */\n      0x4e487b7100000000000000000000000000000000000000000000000000000000\n        /* \"#utility.yul\":3547:3548   */\n      0x00\n        /* \"#utility.yul\":3540:3628   */\n      mstore\n        /* \"#utility.yul\":3647:3651   */\n      0x41\n        /* \"#utility.yul\":3644:3645   */\n      0x04\n        /* \"#utility.yul\":3637:3652   */\n      mstore\n        /* \"#utility.yul\":3671:3675   */\n      0x24\n        /* \"#utility.yul\":3668:3669   */\n      0x00\n        /* \"#utility.yul\":3661:3676   */\n      revert\n        /* \"#utility.yul\":3688:3969   */\n    tag_92:\n        /* \"#utility.yul\":3771:3798   */\n      tag_160\n        /* \"#utility.yul\":3793:3797   */\n      dup3\n        /* \"#utility.yul\":3771:3798   */\n      tag_87\n      jump\t// in\n    tag_160:\n        /* \"#utility.yul\":3763:3769   */\n      dup2\n        /* \"#utility.yul\":3759:3799   */\n      add\n        /* \"#utility.yul\":3901:3907   */\n      dup2\n        /* \"#utility.yul\":3889:3899   */\n      dup2\n        /* \"#utility.yul\":3886:3908   */\n      lt\n        /* \"#utility.yul\":3865:3883   */\n      0xffffffffffffffff\n        /* \"#utility.yul\":3853:3863   */\n      dup3\n        /* \"#utility.yul\":3850:3884   */\n      gt\n        /* \"#utility.yul\":3847:3909   */\n      or\n        /* \"#utility.yul\":3844:3932   */\n      iszero\n      tag_161\n      jumpi\n        /* \"#utility.yul\":3912:3930   */\n      tag_162\n      tag_91\n      jump\t// in\n    tag_162:\n        /* \"#utility.yul\":3844:3932   */\n    tag_161:\n        /* \"#utility.yul\":3952:3962   */\n      dup1\n        /* \"#utility.yul\":3948:3950   */\n      0x40\n        /* \"#utility.yul\":3941:3963   */\n      mstore\n        /* \"#utility.yul\":3731:3969   */\n      pop\n        /* \"#utility.yul\":3688:3969   */\n      pop\n      pop\n      jump\t// out\n        /* \"#utility.yul\":3975:4104   */\n    tag_93:\n        /* \"#utility.yul\":4009:4015   */\n      0x00\n        /* \"#utility.yul\":4036:4056   */\n      tag_164\n      tag_79\n      jump\t// in\n    tag_164:\n        /* \"#utility.yul\":4026:4056   */\n      swap1\n      pop\n        /* \"#utility.yul\":4065:4098   */\n      tag_165\n        /* \"#utility.yul\":4093:4097   */\n      dup3\n        /* \"#utility.yul\":4085:4091   */\n      dup3\n        /* \"#utility.yul\":4065:4098   */\n      tag_92\n      jump\t// in\n    tag_165:\n        /* \"#utility.yul\":3975:4104   */\n      swap2\n      swap1\n      pop\n      jump\t// out\n        /* \"#utility.yul\":4110:4418   */\n    tag_94:\n        /* \"#utility.yul\":4172:4176   */\n      0x00\n        /* \"#utility.yul\":4262:4280   */\n      0xffffffffffffffff\n        /* \"#utility.yul\":4254:4260   */\n      dup3\n        /* \"#utility.yul\":4251:4281   */\n      gt\n        /* \"#utility.yul\":4248:4304   */\n      iszero\n      tag_167\n      jumpi\n        /* \"#utility.yul\":4284:4302   */\n      tag_168\n      tag_91\n      jump\t// in\n    tag_168:\n        /* \"#utility.yul\":4248:4304   */\n    tag_167:\n        /* \"#utility.yul\":4322:4351   */\n      tag_169\n        /* \"#utility.yul\":4344:4350   */\n      dup3\n        /* \"#utility.yul\":4322:4351   */\n      tag_87\n      jump\t// in\n    tag_169:\n        /* \"#utility.yul\":4314:4351   */\n      swap1\n      pop\n        /* \"#utility.yul\":4406:4410   */\n      0x20\n        /* \"#utility.yul\":4400:4404   */\n      dup2\n        /* \"#utility.yul\":4396:4411   */\n      add\n        /* \"#utility.yul\":4388:4411   */\n      swap1\n      pop\n        /* \"#utility.yul\":4110:4418   */\n      swap2\n      swap1\n      pop\n      jump\t// out\n        /* \"#utility.yul\":4424:4570   */\n    tag_95:\n        /* \"#utility.yul\":4521:4527   */\n      dup3\n        /* \"#utility.yul\":4516:4519   */\n      dup2\n        /* \"#utility.yul\":4511:4514   */\n      dup4\n        /* \"#utility.yul\":4498:4528   */\n      calldatacopy\n        /* \"#utility.yul\":4562:4563   */\n      0x00\n        /* \"#utility.yul\":4553:4559   */\n      dup4\n        /* \"#utility.yul\":4548:4551   */\n      dup4\n        /* \"#utility.yul\":4544:4560   */\n      add\n        /* \"#utility.yul\":4537:4564   */\n      mstore\n        /* \"#utility.yul\":4424:4570   */\n      pop\n      pop\n      pop\n      jump\t// out\n        /* \"#utility.yul\":4576:5001   */\n    tag_96:\n        /* \"#utility.yul\":4654:4659   */\n      0x00\n        /* \"#utility.yul\":4679:4745   */\n      tag_172\n        /* \"#utility.yul\":4695:4744   */\n      tag_173\n        /* \"#utility.yul\":4737:4743   */\n      dup5\n        /* \"#utility.yul\":4695:4744   */\n      tag_94\n      jump\t// in\n    tag_173:\n        /* \"#utility.yul\":4679:4745   */\n      tag_93\n      jump\t// in\n    tag_172:\n        /* \"#utility.yul\":4670:4745   */\n      swap1\n      pop\n        /* \"#utility.yul\":4768:4774   */\n      dup3\n        /* \"#utility.yul\":4761:4766   */\n      dup2\n        /* \"#utility.yul\":4754:4775   */\n      mstore\n        /* \"#utility.yul\":4806:4810   */\n      0x20\n        /* \"#utility.yul\":4799:4804   */\n      dup2\n        /* \"#utility.yul\":4795:4811   */\n      add\n        /* \"#utility.yul\":4844:4847   */\n      dup5\n        /* \"#utility.yul\":4835:4841   */\n      dup5\n        /* \"#utility.yul\":4830:4833   */\n      dup5\n        /* \"#utility.yul\":4826:4842   */\n      add\n        /* \"#utility.yul\":4823:4848   */\n      gt\n        /* \"#utility.yul\":4820:4932   */\n      iszero\n      tag_174\n      jumpi\n        /* \"#utility.yul\":4851:4930   */\n      tag_175\n      tag_90\n      jump\t// in\n    tag_175:\n        /* \"#utility.yul\":4820:4932   */\n    tag_174:\n        /* \"#utility.yul\":4941:4995   */\n      tag_176\n        /* \"#utility.yul\":4988:4994   */\n      dup5\n        /* \"#utility.yul\":4983:4986   */\n      dup3\n        /* \"#utility.yul\":4978:4981   */\n      dup6\n        /* \"#utility.yul\":4941:4995   */\n      tag_95\n      jump\t// in\n    tag_176:\n        /* \"#utility.yul\":4660:5001   */\n      pop\n        /* \"#utility.yul\":4576:5001   */\n      swap4\n      swap3\n      pop\n      pop\n      pop\n      jump\t// out\n        /* \"#utility.yul\":5021:5361   */\n    tag_97:\n        /* \"#utility.yul\":5077:5082   */\n      0x00\n        /* \"#utility.yul\":5126:5129   */\n      dup3\n        /* \"#utility.yul\":5119:5123   */\n      0x1f\n        /* \"#utility.yul\":5111:5117   */\n      dup4\n        /* \"#utility.yul\":5107:5124   */\n      add\n        /* \"#utility.yul\":5103:5130   */\n      slt\n        /* \"#utility.yul\":5093:5215   */\n      tag_178\n      jumpi\n        /* \"#utility.yul\":5134:5213   */\n      tag_179\n      tag_89\n      jump\t// in\n    tag_179:\n        /* \"#utility.yul\":5093:5215   */\n    tag_178:\n        /* \"#utility.yul\":5251:5257   */\n      dup2\n        /* \"#utility.yul\":5238:5258   */\n      calldataload\n        /* \"#utility.yul\":5276:5355   */\n      tag_180\n        /* \"#utility.yul\":5351:5354   */\n      dup5\n        /* \"#utility.yul\":5343:5349   */\n      dup3\n        /* \"#utility.yul\":5336:5340   */\n      0x20\n        /* \"#utility.yul\":5328:5334   */\n      dup7\n        /* \"#utility.yul\":5324:5341   */\n      add\n        /* \"#utility.yul\":5276:5355   */\n      tag_96\n      jump\t// in\n    tag_180:\n        /* \"#utility.yul\":5267:5355   */\n      swap2\n      pop\n        /* \"#utility.yul\":5083:5361   */\n      pop\n        /* \"#utility.yul\":5021:5361   */\n      swap3\n      swap2\n      pop\n      pop\n      jump\t// out\n        /* \"#utility.yul\":5367:5876   */\n    tag_38:\n        /* \"#utility.yul\":5436:5442   */\n      0x00\n        /* \"#utility.yul\":5485:5487   */\n      0x20\n        /* \"#utility.yul\":5473:5482   */\n      dup3\n        /* \"#utility.yul\":5464:5471   */\n      dup5\n        /* \"#utility.yul\":5460:5483   */\n      sub\n        /* \"#utility.yul\":5456:5488   */\n      slt\n        /* \"#utility.yul\":5453:5572   */\n      iszero\n      tag_182\n      jumpi\n        /* \"#utility.yul\":5491:5570   */\n      tag_183\n      tag_80\n      jump\t// in\n    tag_183:\n        /* \"#utility.yul\":5453:5572   */\n    tag_182:\n        /* \"#utility.yul\":5639:5640   */\n      0x00\n        /* \"#utility.yul\":5628:5637   */\n      dup3\n        /* \"#utility.yul\":5624:5641   */\n      add\n        /* \"#utility.yul\":5611:5642   */\n      calldataload\n        /* \"#utility.yul\":5669:5687   */\n      0xffffffffffffffff\n        /* \"#utility.yul\":5661:5667   */\n      dup2\n        /* \"#utility.yul\":5658:5688   */\n      gt\n        /* \"#utility.yul\":5655:5772   */\n      iszero\n      tag_184\n      jumpi\n        /* \"#utility.yul\":5691:5770   */\n      tag_185\n      tag_81\n      jump\t// in\n    tag_185:\n        /* \"#utility.yul\":5655:5772   */\n    tag_184:\n        /* \"#utility.yul\":5796:5859   */\n      tag_186\n        /* \"#utility.yul\":5851:5858   */\n      dup5\n        /* \"#utility.yul\":5842:5848   */\n      dup3\n        /* \"#utility.yul\":5831:5840   */\n      dup6\n        /* \"#utility.yul\":5827:5849   */\n      add\n        /* \"#utility.yul\":5796:5859   */\n      tag_97\n      jump\t// in\n    tag_186:\n        /* \"#utility.yul\":5786:5859   */\n      swap2\n      pop\n        /* \"#utility.yul\":5582:5869   */\n      pop\n        /* \"#utility.yul\":5367:5876   */\n      swap3\n      swap2\n      pop\n      pop\n      jump\t// out\n        /* \"#utility.yul\":5882:6536   */\n    tag_47:\n        /* \"#utility.yul\":5960:5966   */\n      0x00\n        /* \"#utility.yul\":5968:5974   */\n      dup1\n        /* \"#utility.yul\":6017:6019   */\n      0x40\n        /* \"#utility.yul\":6005:6014   */\n      dup4\n        /* \"#utility.yul\":5996:6003   */\n      dup6\n        /* \"#utility.yul\":5992:6015   */\n      sub\n        /* \"#utility.yul\":5988:6020   */\n      slt\n        /* \"#utility.yul\":5985:6104   */\n      iszero\n      tag_188\n      jumpi\n        /* \"#utility.yul\":6023:6102   */\n      tag_189\n      tag_80\n      jump\t// in\n    tag_189:\n        /* \"#utility.yul\":5985:6104   */\n    tag_188:\n        /* \"#utility.yul\":6143:6144   */\n      0x00\n        /* \"#utility.yul\":6168:6221   */\n      tag_190\n        /* \"#utility.yul\":6213:6220   */\n      dup6\n        /* \"#utility.yul\":6204:6210   */\n      dup3\n        /* \"#utility.yul\":6193:6202   */\n      dup7\n        /* \"#utility.yul\":6189:6211   */\n      add\n        /* \"#utility.yul\":6168:6221   */\n      tag_83\n      jump\t// in\n    tag_190:\n        /* \"#utility.yul\":6158:6221   */\n      swap3\n      pop\n        /* \"#utility.yul\":6114:6231   */\n      pop\n        /* \"#utility.yul\":6298:6300   */\n      0x20\n        /* \"#utility.yul\":6287:6296   */\n      dup4\n        /* \"#utility.yul\":6283:6301   */\n      add\n        /* \"#utility.yul\":6270:6302   */\n      calldataload\n        /* \"#utility.yul\":6329:6347   */\n      0xffffffffffffffff\n        /* \"#utility.yul\":6321:6327   */\n      dup2\n        /* \"#utility.yul\":6318:6348   */\n      gt\n        /* \"#utility.yul\":6315:6432   */\n      iszero\n      tag_191\n      jumpi\n        /* \"#utility.yul\":6351:6430   */\n      tag_192\n      tag_81\n      jump\t// in\n    tag_192:\n        /* \"#utility.yul\":6315:6432   */\n    tag_191:\n        /* \"#utility.yul\":6456:6519   */\n      tag_193\n        /* \"#utility.yul\":6511:6518   */\n      dup6\n        /* \"#utility.yul\":6502:6508   */\n      dup3\n        /* \"#utility.yul\":6491:6500   */\n      dup7\n        /* \"#utility.yul\":6487:6509   */\n      add\n        /* \"#utility.yul\":6456:6519   */\n      tag_97\n      jump\t// in\n    tag_193:\n        /* \"#utility.yul\":6446:6519   */\n      swap2\n      pop\n        /* \"#utility.yul\":6241:6529   */\n      pop\n        /* \"#utility.yul\":5882:6536   */\n      swap3\n      pop\n      swap3\n      swap1\n      pop\n      jump\t// out\n        /* \"#utility.yul\":6542:6619   */\n    tag_98:\n        /* \"#utility.yul\":6579:6586   */\n      0x00\n        /* \"#utility.yul\":6608:6613   */\n      dup2\n        /* \"#utility.yul\":6597:6613   */\n      swap1\n      pop\n        /* \"#utility.yul\":6542:6619   */\n      swap2\n      swap1\n      pop\n      jump\t// out\n        /* \"#utility.yul\":6625:6743   */\n    tag_99:\n        /* \"#utility.yul\":6712:6736   */\n      tag_196\n        /* \"#utility.yul\":6730:6735   */\n      dup2\n        /* \"#utility.yul\":6712:6736   */\n      tag_98\n      jump\t// in\n    tag_196:\n        /* \"#utility.yul\":6707:6710   */\n      dup3\n        /* \"#utility.yul\":6700:6737   */\n      mstore\n        /* \"#utility.yul\":6625:6743   */\n      pop\n      pop\n      jump\t// out\n        /* \"#utility.yul\":6749:6971   */\n    tag_52:\n        /* \"#utility.yul\":6842:6846   */\n      0x00\n        /* \"#utility.yul\":6880:6882   */\n      0x20\n        /* \"#utility.yul\":6869:6878   */\n      dup3\n        /* \"#utility.yul\":6865:6883   */\n      add\n        /* \"#utility.yul\":6857:6883   */\n      swap1\n      pop\n        /* \"#utility.yul\":6893:6964   */\n      tag_198\n        /* \"#utility.yul\":6961:6962   */\n      0x00\n        /* \"#utility.yul\":6950:6959   */\n      dup4\n        /* \"#utility.yul\":6946:6963   */\n      add\n        /* \"#utility.yul\":6937:6943   */\n      dup5\n        /* \"#utility.yul\":6893:6964   */\n      tag_99\n      jump\t// in\n    tag_198:\n        /* \"#utility.yul\":6749:6971   */\n      swap3\n      swap2\n      pop\n      pop\n      jump\t// out\n        /* \"#utility.yul\":6977:7157   */\n    tag_100:\n        /* \"#utility.yul\":7025:7102   */\n      0x4e487b7100000000000000000000000000000000000000000000000000000000\n        /* \"#utility.yul\":7022:7023   */\n      0x00\n        /* \"#utility.yul\":7015:7103   */\n      mstore\n        /* \"#utility.yul\":7122:7126   */\n      0x22\n        /* \"#utility.yul\":7119:7120   */\n      0x04\n        /* \"#utility.yul\":7112:7127   */\n      mstore\n        /* \"#utility.yul\":7146:7150   */\n      0x24\n        /* \"#utility.yul\":7143:7144   */\n      0x00\n        /* \"#utility.yul\":7136:7151   */\n      revert\n        /* \"#utility.yul\":7163:7483   */\n    tag_57:\n        /* \"#utility.yul\":7207:7213   */\n      0x00\n        /* \"#utility.yul\":7244:7245   */\n      0x02\n        /* \"#utility.yul\":7238:7242   */\n      dup3\n        /* \"#utility.yul\":7234:7246   */\n      div\n        /* \"#utility.yul\":7224:7246   */\n      swap1\n      pop\n        /* \"#utility.yul\":7291:7292   */\n      0x01\n        /* \"#utility.yul\":7285:7289   */\n      dup3\n        /* \"#utility.yul\":7281:7293   */\n      and\n        /* \"#utility.yul\":7312:7330   */\n      dup1\n        /* \"#utility.yul\":7302:7383   */\n      tag_201\n      jumpi\n        /* \"#utility.yul\":7368:7372   */\n      0x7f\n        /* \"#utility.yul\":7360:7366   */\n      dup3\n        /* \"#utility.yul\":7356:7373   */\n      and\n        /* \"#utility.yul\":7346:7373   */\n      swap2\n      pop\n        /* \"#utility.yul\":7302:7383   */\n    tag_201:\n        /* \"#utility.yul\":7430:7432   */\n      0x20\n        /* \"#utility.yul\":7422:7428   */\n      dup3\n        /* \"#utility.yul\":7419:7433   */\n      lt\n        /* \"#utility.yul\":7399:7417   */\n      dup2\n        /* \"#utility.yul\":7396:7434   */\n      sub\n        /* \"#utility.yul\":7393:7477   */\n      tag_202\n      jumpi\n        /* \"#utility.yul\":7449:7467   */\n      tag_203\n      tag_100\n      jump\t// in\n    tag_203:\n        /* \"#utility.yul\":7393:7477   */\n    tag_202:\n        /* \"#utility.yul\":7214:7483   */\n      pop\n        /* \"#utility.yul\":7163:7483   */\n      swap2\n      swap1\n      pop\n      jump\t// out\n        /* \"#utility.yul\":7489:7630   */\n    tag_101:\n        /* \"#utility.yul\":7538:7542   */\n      0x00\n        /* \"#utility.yul\":7561:7564   */\n      dup2\n        /* \"#utility.yul\":7553:7564   */\n      swap1\n      pop\n        /* \"#utility.yul\":7584:7587   */\n      dup2\n        /* \"#utility.yul\":7581:7582   */\n      0x00\n        /* \"#utility.yul\":7574:7588   */\n      mstore\n        /* \"#utility.yul\":7618:7622   */\n      0x20\n        /* \"#utility.yul\":7615:7616   */\n      0x00\n        /* \"#utility.yul\":7605:7623   */\n      keccak256\n        /* \"#utility.yul\":7597:7623   */\n      swap1\n      pop\n        /* \"#utility.yul\":7489:7630   */\n      swap2\n      swap1\n      pop\n      jump\t// out\n        /* \"#utility.yul\":7636:7729   */\n    tag_102:\n        /* \"#utility.yul\":7673:7679   */\n      0x00\n        /* \"#utility.yul\":7720:7722   */\n      0x20\n        /* \"#utility.yul\":7715:7717   */\n      0x1f\n        /* \"#utility.yul\":7708:7713   */\n      dup4\n        /* \"#utility.yul\":7704:7718   */\n      add\n        /* \"#utility.yul\":7700:7723   */\n      div\n        /* \"#utility.yul\":7690:7723   */\n      swap1\n      pop\n        /* \"#utility.yul\":7636:7729   */\n      swap2\n      swap1\n      pop\n      jump\t// out\n        /* \"#utility.yul\":7735:7842   */\n    tag_103:\n        /* \"#utility.yul\":7779:7787   */\n      0x00\n        /* \"#utility.yul\":7829:7834   */\n      dup3\n        /* \"#utility.yul\":7823:7827   */\n      dup3\n        /* \"#utility.yul\":7819:7835   */\n      shl\n        /* \"#utility.yul\":7798:7835   */\n      swap1\n      pop\n        /* \"#utility.yul\":7735:7842   */\n      swap3\n      swap2\n      pop\n      pop\n      jump\t// out\n        /* \"#utility.yul\":7848:8241   */\n    tag_104:\n        /* \"#utility.yul\":7917:7923   */\n      0x00\n        /* \"#utility.yul\":7967:7968   */\n      0x08\n        /* \"#utility.yul\":7955:7965   */\n      dup4\n        /* \"#utility.yul\":7951:7969   */\n      mul\n        /* \"#utility.yul\":7990:8087   */\n      tag_208\n        /* \"#utility.yul\":8020:8086   */\n      0xffffffffffffffffffffffffffffffffffffffffffffffffffffffffffffffff\n        /* \"#utility.yul\":8009:8018   */\n      dup3\n        /* \"#utility.yul\":7990:8087   */\n      tag_103\n      jump\t// in\n    tag_208:\n        /* \"#utility.yul\":8108:8147   */\n      tag_209\n        /* \"#utility.yul\":8138:8146   */\n      dup7\n        /* \"#utility.yul\":8127:8136   */\n      dup4\n        /* \"#utility.yul\":8108:8147   */\n      tag_103\n      jump\t// in\n    tag_209:\n        /* \"#utility.yul\":8096:8147   */\n      swap6\n      pop\n        /* \"#utility.yul\":8180:8184   */\n      dup1\n        /* \"#utility.yul\":8176:8185   */\n      not\n        /* \"#utility.yul\":8169:8174   */\n      dup5\n        /* \"#utility.yul\":8165:8186   */\n      and\n        /* \"#utility.yul\":8156:8186   */\n      swap4\n      pop\n        /* \"#utility.yul\":8229:8233   */\n      dup1\n        /* \"#utility.yul\":8219:8227   */\n      dup7\n        /* \"#utility.yul\":8215:8234   */\n      and\n        /* \"#utility.yul\":8208:8213   */\n      dup5\n        /* \"#utility.yul\":8205:8235   */\n      or\n        /* \"#utility.yul\":8195:8235   */\n      swap3\n      pop\n        /* \"#utility.yul\":7924:8241   */\n      pop\n      pop\n        /* \"#utility.yul\":7848:8241   */\n      swap4\n      swap3\n      pop\n      pop\n      pop\n      jump\t// out\n        /* \"#utility.yul\":8247:8307   */\n    tag_105:\n        /* \"#utility.yul\":8275:8278   */\n      0x00\n        /* \"#utility.yul\":8296:8301   */\n      dup2\n        /* \"#utility.yul\":8289:8301   */\n      swap1\n      pop\n        /* \"#utility.yul\":8247:8307   */\n      swap2\n      swap1\n      pop\n      jump\t// out\n        /* \"#utility.yul\":8313:8455   */\n    tag_106:\n        /* \"#utility.yul\":8363:8372   */\n      0x00\n        /* \"#utility.yul\":8396:8449   */\n      tag_212\n        /* \"#utility.yul\":8414:8448   */\n      tag_213\n        /* \"#utility.yul\":8423:8447   */\n      tag_214\n        /* \"#utility.yul\":8441:8446   */\n      dup5\n        /* \"#utility.yul\":8423:8447   */\n      tag_75\n      jump\t// in\n    tag_214:\n        /* \"#utility.yul\":8414:8448   */\n      tag_105\n      jump\t// in\n    tag_213:\n        /* \"#utility.yul\":8396:8449   */\n      tag_75\n      jump\t// in\n    tag_212:\n        /* \"#utility.yul\":8383:8449   */\n      swap1\n      pop\n        /* \"#utility.yul\":8313:8455   */\n      swap2\n      swap1\n      pop\n      jump\t// out\n        /* \"#utility.yul\":8461:8536   */\n    tag_107:\n        /* \"#utility.yul\":8504:8507   */\n      0x00\n        /* \"#utility.yul\":8525:8530   */\n      dup2\n        /* \"#utility.yul\":8518:8530   */\n      swap1\n      pop\n        /* \"#utility.yul\":8461:8536   */\n      swap2\n      swap1\n      pop\n      jump\t// out\n        /* \"#utility.yul\":8542:8811   */\n    tag_108:\n        /* \"#utility.yul\":8652:8691   */\n      tag_217\n        /* \"#utility.yul\":8683:8690   */\n      dup4\n        /* \"#utility.yul\":8652:8691   */\n      tag_106\n      jump\t// in\n    tag_217:\n        /* \"#utility.yul\":8713:8804   */\n      tag_218\n        /* \"#utility.yul\":8762:8803   */\n      tag_219\n        /* \"#utility.yul\":8786:8802   */\n      dup3\n        /* \"#utility.yul\":8762:8803   */\n      tag_107\n      jump\t// in\n    tag_219:\n        /* \"#utility.yul\":8754:8760   */\n      dup5\n        /* \"#utility.yul\":8747:8751   */\n      dup5\n        /* \"#utility.yul\":8741:8752   */\n      sload\n        /* \"#utility.yul\":8713:8804   */\n      tag_104\n      jump\t// in\n    tag_218:\n        /* \"#utility.yul\":8707:8711   */\n      dup3\n        /* \"#utility.yul\":8700:8805   */\n      sstore\n        /* \"#utility.yul\":8618:8811   */\n      pop\n        /* \"#utility.yul\":8542:8811   */\n      pop\n      pop\n      pop\n      jump\t// out\n        /* \"#utility.yul\":8817:8890   */\n    tag_109:\n        /* \"#utility.yul\":8862:8865   */\n      0x00\n        /* \"#utility.yul\":8817:8890   */\n      swap1\n      jump\t// out\n        /* \"#utility.yul\":8896:9085   */\n    tag_110:\n        /* \"#utility.yul\":8973:9005   */\n      tag_222\n      tag_109\n      jump\t// in\n    tag_222:\n        /* \"#utility.yul\":9014:9079   */\n      tag_223\n        /* \"#utility.yul\":9072:9078   */\n      dup2\n        /* \"#utility.yul\":9064:9070   */\n      dup5\n        /* \"#utility.yul\":9058:9062   */\n      dup5\n        /* \"#utility.yul\":9014:9079   */\n      tag_108\n      jump\t// in\n    tag_223:\n        /* \"#utility.yul\":8949:9085   */\n      pop\n        /* \"#utility.yul\":8896:9085   */\n      pop\n      pop\n      jump\t// out\n        /* \"#utility.yul\":9091:9277   */\n    tag_111:\n        /* \"#utility.yul\":9151:9271   */\n    tag_225:\n        /* \"#utility.yul\":9168:9171   */\n      dup2\n        /* \"#utility.yul\":9161:9166   */\n      dup2\n        /* \"#utility.yul\":9158:9172   */\n      lt\n        /* \"#utility.yul\":9151:9271   */\n      iszero\n      tag_227\n      jumpi\n        /* \"#utility.yul\":9222:9261   */\n      tag_228\n        /* \"#utility.yul\":9259:9260   */\n      0x00\n        /* \"#utility.yul\":9252:9257   */\n      dup3\n        /* \"#utility.yul\":9222:9261   */\n      tag_110\n      jump\t// in\n    tag_228:\n        /* \"#utility.yul\":9195:9196   */\n      0x01\n        /* \"#utility.yul\":9188:9193   */\n      dup2\n        /* \"#utility.yul\":9184:9197   */\n      add\n        /* \"#utility.yul\":9175:9197   */\n      swap1\n      pop\n        /* \"#utility.yul\":9151:9271   */\n      jump(tag_225)\n    tag_227:\n        /* \"#utility.yul\":9091:9277   */\n      pop\n      pop\n      jump\t// out\n        /* \"#utility.yul\":9283:9826   */\n    tag_112:\n        /* \"#utility.yul\":9384:9386   */\n      0x1f\n        /* \"#utility.yul\":9379:9382   */\n      dup3\n        /* \"#utility.yul\":9376:9387   */\n      gt\n        /* \"#utility.yul\":9373:9819   */\n      iszero\n      tag_230\n      jumpi\n        /* \"#utility.yul\":9418:9456   */\n      tag_231\n        /* \"#utility.yul\":9450:9455   */\n      dup2\n        /* \"#utility.yul\":9418:9456   */\n      tag_101\n      jump\t// in\n    tag_231:\n        /* \"#utility.yul\":9502:9531   */\n      tag_232\n        /* \"#utility.yul\":9520:9530   */\n      dup5\n        /* \"#utility.yul\":9502:9531   */\n      tag_102\n      jump\t// in\n    tag_232:\n        /* \"#utility.yul\":9492:9500   */\n      dup2\n        /* \"#utility.yul\":9488:9532   */\n      add\n        /* \"#utility.yul\":9685:9687   */\n      0x20\n        /* \"#utility.yul\":9673:9683   */\n      dup6\n        /* \"#utility.yul\":9670:9688   */\n      lt\n        /* \"#utility.yul\":9667:9716   */\n      iszero\n      tag_233\n      jumpi\n        /* \"#utility.yul\":9706:9714   */\n      dup2\n        /* \"#utility.yul\":9691:9714   */\n      swap1\n      pop\n        /* \"#utility.yul\":9667:9716   */\n    tag_233:\n        /* \"#utility.yul\":9729:9809   */\n      tag_234\n        /* \"#utility.yul\":9785:9807   */\n      tag_235\n        /* \"#utility.yul\":9803:9806   */\n      dup6\n        /* \"#utility.yul\":9785:9807   */\n      tag_102\n      jump\t// in\n    tag_235:\n        /* \"#utility.yul\":9775:9783   */\n      dup4\n        /* \"#utility.yul\":9771:9808   */\n      add\n        /* \"#utility.yul\":9758:9769   */\n      dup3\n        /* \"#utility.yul\":9729:9809   */\n      tag_111\n      jump\t// in\n    tag_234:\n        /* \"#utility.yul\":9388:9819   */\n      pop\n      pop\n        /* \"#utility.yul\":9373:9819   */\n    tag_230:\n        /* \"#utility.yul\":9283:9826   */\n      pop\n      pop\n      pop\n      jump\t// out\n        /* \"#utility.yul\":9832:9949   */\n    tag_113:\n        /* \"#utility.yul\":9886:9894   */\n      0x00\n        /* \"#utility.yul\":9936:9941   */\n      dup3\n        /* \"#utility.yul\":9930:9934   */\n      dup3\n        /* \"#utility.yul\":9926:9942   */\n      shr\n        /* \"#utility.yul\":9905:9942   */\n      swap1\n      pop\n        /* \"#utility.yul\":9832:9949   */\n      swap3\n      swap2\n      pop\n      pop\n      jump\t// out\n        /* \"#utility.yul\":9955:10124   */\n    tag_114:\n        /* \"#utility.yul\":9999:10005   */\n      0x00\n        /* \"#utility.yul\":10032:10083   */\n      tag_238\n        /* \"#utility.yul\":10080:10081   */\n      0x00\n        /* \"#utility.yul\":10076:10082   */\n      not\n        /* \"#utility.yul\":10068:10073   */\n      dup5\n        /* \"#utility.yul\":10065:10066   */\n      0x08\n        /* \"#utility.yul\":10061:10074   */\n      mul\n        /* \"#utility.yul\":10032:10083   */\n      tag_113\n      jump\t// in\n    tag_238:\n        /* \"#utility.yul\":10028:10084   */\n      not\n        /* \"#utility.yul\":10113:10117   */\n      dup1\n        /* \"#utility.yul\":10107:10111   */\n      dup4\n        /* \"#utility.yul\":10103:10118   */\n      and\n        /* \"#utility.yul\":10093:10118   */\n      swap2\n      pop\n        /* \"#utility.yul\":10006:10124   */\n      pop\n        /* \"#utility.yul\":9955:10124   */\n      swap3\n      swap2\n      pop\n      pop\n      jump\t// out\n        /* \"#utility.yul\":10129:10424   */\n    tag_115:\n        /* \"#utility.yul\":10205:10209   */\n      0x00\n        /* \"#utility.yul\":10351:10380   */\n      tag_240\n        /* \"#utility.yul\":10376:10379   */\n      dup4\n        /* \"#utility.yul\":10370:10374   */\n      dup4\n        /* \"#utility.yul\":10351:10380   */\n      tag_114\n      jump\t// in\n    tag_240:\n        /* \"#utility.yul\":10343:10380   */\n      swap2\n      pop\n        /* \"#utility.yul\":10413:10416   */\n      dup3\n        /* \"#utility.yul\":10410:10411   */\n      0x02\n        /* \"#utility.yul\":10406:10417   */\n      mul\n        /* \"#utility.yul\":10400:10404   */\n      dup3\n        /* \"#utility.yul\":10397:10418   */\n      or\n        /* \"#utility.yul\":10389:10418   */\n      swap1\n      pop\n        /* \"#utility.yul\":10129:10424   */\n      swap3\n      swap2\n      pop\n      pop\n      jump\t// out\n        /* \"#utility.yul\":10429:11824   */\n    tag_72:\n        /* \"#utility.yul\":10546:10583   */\n      tag_242\n        /* \"#utility.yul\":10579:10582   */\n      dup3\n        /* \"#utility.yul\":10546:10583   */\n      tag_84\n      jump\t// in\n    tag_242:\n        /* \"#utility.yul\":10648:10666   */\n      0xffffffffffffffff\n        /* \"#utility.yul\":10640:10646   */\n      dup2\n        /* \"#utility.yul\":10637:10667   */\n      gt\n        /* \"#utility.yul\":10634:10690   */\n      iszero\n      tag_243\n      jumpi\n        /* \"#utility.yul\":10670:10688   */\n      tag_244\n      tag_91\n      jump\t// in\n    tag_244:\n        /* \"#utility.yul\":10634:10690   */\n    tag_243:\n        /* \"#utility.yul\":10714:10752   */\n      tag_245\n        /* \"#utility.yul\":10746:10750   */\n      dup3\n        /* \"#utility.yul\":10740:10751   */\n      sload\n        /* \"#utility.yul\":10714:10752   */\n      tag_57\n      jump\t// in\n    tag_245:\n        /* \"#utility.yul\":10799:10866   */\n      tag_246\n        /* \"#utility.yul\":10859:10865   */\n      dup3\n        /* \"#utility.yul\":10851:10857   */\n      dup3\n        /* \"#utility.yul\":10845:10849   */\n      dup6\n        /* \"#utility.yul\":10799:10866   */\n      tag_112\n      jump\t// in\n    tag_246:\n        /* \"#utility.yul\":10893:10894   */\n      0x00\n        /* \"#utility.yul\":10917:10921   */\n      0x20\n        /* \"#utility.yul\":10904:10921   */\n      swap1\n      pop\n        /* \"#utility.yul\":10949:10951   */\n      0x1f\n        /* \"#utility.yul\":10941:10947   */\n      dup4\n        /* \"#utility.yul\":10938:10952   */\n      gt\n        /* \"#utility.yul\":10966:10967   */\n      0x01\n        /* \"#utility.yul\":10961:11579   */\n      dup2\n      eq\n      tag_248\n      jumpi\n        /* \"#utility.yul\":11623:11624   */\n      0x00\n        /* \"#utility.yul\":11640:11646   */\n      dup5\n        /* \"#utility.yul\":11637:11714   */\n      iszero\n      tag_249\n      jumpi\n        /* \"#utility.yul\":11689:11698   */\n      dup3\n        /* \"#utility.yul\":11684:11687   */\n      dup8\n        /* \"#utility.yul\":11680:11699   */\n      add\n        /* \"#utility.yul\":11674:11700   */\n      mload\n        /* \"#utility.yul\":11665:11700   */\n      swap1\n      pop\n        /* \"#utility.yul\":11637:11714   */\n    tag_249:\n        /* \"#utility.yul\":11740:11807   */\n      tag_250\n        /* \"#utility.yul\":11800:11806   */\n      dup6\n        /* \"#utility.yul\":11793:11798   */\n      dup3\n        /* \"#utility.yul\":11740:11807   */\n      tag_115\n      jump\t// in\n    tag_250:\n        /* \"#utility.yul\":11734:11738   */\n      dup7\n        /* \"#utility.yul\":11727:11808   */\n      sstore\n        /* \"#utility.yul\":11596:11818   */\n      pop\n        /* \"#utility.yul\":10931:11818   */\n      jump(tag_247)\n        /* \"#utility.yul\":10961:11579   */\n    tag_248:\n        /* \"#utility.yul\":11013:11017   */\n      0x1f\n        /* \"#utility.yul\":11009:11018   */\n      not\n        /* \"#utility.yul\":11001:11007   */\n      dup5\n        /* \"#utility.yul\":10997:11019   */\n      and\n        /* \"#utility.yul\":11047:11084   */\n      tag_251\n        /* \"#utility.yul\":11079:11083   */\n      dup7\n        /* \"#utility.yul\":11047:11084   */\n      tag_101\n      jump\t// in\n    tag_251:\n        /* \"#utility.yul\":11106:11107   */\n      0x00\n        /* \"#utility.yul\":11120:11328   */\n    tag_252:\n        /* \"#utility.yul\":11134:11141   */\n      dup3\n        /* \"#utility.yul\":11131:11132   */\n      dup2\n        /* \"#utility.yul\":11128:11142   */\n      lt\n        /* \"#utility.yul\":11120:11328   */\n      iszero\n      tag_254\n      jumpi\n        /* \"#utility.yul\":11213:11222   */\n      dup5\n        /* \"#utility.yul\":11208:11211   */\n      dup10\n        /* \"#utility.yul\":11204:11223   */\n      add\n        /* \"#utility.yul\":11198:11224   */\n      mload\n        /* \"#utility.yul\":11190:11196   */\n      dup3\n        /* \"#utility.yul\":11183:11225   */\n      sstore\n        /* \"#utility.yul\":11264:11265   */\n      0x01\n        /* \"#utility.yul\":11256:11262   */\n      dup3\n        /* \"#utility.yul\":11252:11266   */\n      add\n        /* \"#utility.yul\":11242:11266   */\n      swap2\n      pop\n        /* \"#utility.yul\":11311:11313   */\n      0x20\n        /* \"#utility.yul\":11300:11309   */\n      dup6\n        /* \"#utility.yul\":11296:11314   */\n      add\n        /* \"#utility.yul\":11283:11314   */\n      swap5\n      pop\n        /* \"#utility.yul\":11157:11161   */\n      0x20\n        /* \"#utility.yul\":11154:11155   */\n      dup2\n        /* \"#utility.yul\":11150:11162   */\n      add\n        /* \"#utility.yul\":11145:11162   */\n      swap1\n      pop\n        /* \"#utility.yul\":11120:11328   */\n      jump(tag_252)\n    tag_254:\n        /* \"#utility.yul\":11356:11362   */\n      dup7\n        /* \"#utility.yul\":11347:11354   */\n      dup4\n        /* \"#utility.yul\":11344:11363   */\n      lt\n        /* \"#utility.yul\":11341:11520   */\n      iszero\n      tag_255\n      jumpi\n        /* \"#utility.yul\":11414:11423   */\n      dup5\n        /* \"#utility.yul\":11409:11412   */\n      dup10\n        /* \"#utility.yul\":11405:11424   */\n      add\n        /* \"#utility.yul\":11399:11425   */\n      mload\n        /* \"#utility.yul\":11457:11505   */\n      tag_256\n        /* \"#utility.yul\":11499:11503   */\n      0x1f\n        /* \"#utility.yul\":11491:11497   */\n      dup10\n        /* \"#utility.yul\":11487:11504   */\n      and\n        /* \"#utility.yul\":11476:11485   */\n      dup3\n        /* \"#utility.yul\":11457:11505   */\n      tag_114\n      jump\t// in\n    tag_256:\n        /* \"#utility.yul\":11449:11455   */\n      dup4\n        /* \"#utility.yul\":11442:11506   */\n      sstore\n        /* \"#utility.yul\":11364:11520   */\n      pop\n        /* \"#utility.yul\":11341:11520   */\n    tag_255:\n        /* \"#utility.yul\":11566:11567   */\n      0x01\n        /* \"#utility.yul\":11562:11563   */\n      0x02\n        /* \"#utility.yul\":11554:11560   */\n      dup9\n        /* \"#utility.yul\":11550:11564   */\n      mul\n        /* \"#utility.yul\":11546:11568   */\n      add\n        /* \"#utility.yul\":11540:11544   */\n      dup9\n        /* \"#utility.yul\":11533:11569   */\n      sstore\n        /* \"#utility.yul\":10968:11579   */\n      pop\n      pop\n      pop\n        /* \"#utility.yul\":10931:11818   */\n    tag_247:\n      pop\n        /* \"#utility.yul\":10521:11824   */\n      pop\n      pop\n      pop\n        /* \"#utility.yul\":10429:11824   */\n      pop\n      pop\n      jump\t// out\n        /* \"#utility.yul\":11830:11978   */\n    tag_116:\n        /* \"#utility.yul\":11932:11943   */\n      0x00\n        /* \"#utility.yul\":11969:11972   */\n      dup2\n        /* \"#utility.yul\":11954:11972   */\n      swap1\n      pop\n        /* \"#utility.yul\":11830:11978   */\n      swap3\n      swap2\n      pop\n      pop\n      jump\t// out\n        /* \"#utility.yul\":11984:12374   */\n    tag_117:\n        /* \"#utility.yul\":12090:12093   */\n      0x00\n        /* \"#utility.yul\":12118:12157   */\n      tag_259\n        /* \"#utility.yul\":12151:12156   */\n      dup3\n        /* \"#utility.yul\":12118:12157   */\n      tag_84\n      jump\t// in\n    tag_259:\n        /* \"#utility.yul\":12173:12262   */\n      tag_260\n        /* \"#utility.yul\":12255:12261   */\n      dup2\n        /* \"#utility.yul\":12250:12253   */\n      dup6\n        /* \"#utility.yul\":12173:12262   */\n      tag_116\n      jump\t// in\n    tag_260:\n        /* \"#utility.yul\":12166:12262   */\n      swap4\n      pop\n        /* \"#utility.yul\":12271:12336   */\n      tag_261\n        /* \"#utility.yul\":12329:12335   */\n      dup2\n        /* \"#utility.yul\":12324:12327   */\n      dup6\n        /* \"#utility.yul\":12317:12321   */\n      0x20\n        /* \"#utility.yul\":12310:12315   */\n      dup7\n        /* \"#utility.yul\":12306:12322   */\n      add\n        /* \"#utility.yul\":12271:12336   */\n      tag_86\n      jump\t// in\n    tag_261:\n        /* \"#utility.yul\":12361:12367   */\n      dup1\n        /* \"#utility.yul\":12356:12359   */\n      dup5\n        /* \"#utility.yul\":12352:12368   */\n      add\n        /* \"#utility.yul\":12345:12368   */\n      swap2\n      pop\n        /* \"#utility.yul\":12094:12374   */\n      pop\n        /* \"#utility.yul\":11984:12374   */\n      swap3\n      swap2\n      pop\n      pop\n      jump\t// out\n        /* \"#utility.yul\":12380:12655   */\n    tag_74:\n        /* \"#utility.yul\":12512:12515   */\n      0x00\n        /* \"#utility.yul\":12534:12629   */\n      tag_263\n        /* \"#utility.yul\":12625:12628   */\n      dup3\n        /* \"#utility.yul\":12616:12622   */\n      dup5\n        /* \"#utility.yul\":12534:12629   */\n      tag_117\n      jump\t// in\n    tag_263:\n        /* \"#utility.yul\":12527:12629   */\n      swap2\n      pop\n        /* \"#utility.yul\":12646:12649   */\n      dup2\n        /* \"#utility.yul\":12639:12649   */\n      swap1\n      pop\n        /* \"#utility.yul\":12380:12655   */\n      swap3\n      swap2\n      pop\n      pop\n      jump\t// out\n\n    auxdata: 0xa2646970667358221220fd9a08d00b901440b07b3acbc0cdbf88b06de2101961e8c0c4d0a3bae75b547464736f6c63430008120033\n}\n",
				"bytecode": {
					"linkReferences": {},
					"object": "60806040526040518060400160405280600281526020016040518060400160405280600581526020017f657277696e000000000000000000000000000000000000000000000000000000815250815250600360008201518160000155602082015181600101908162000072919062000303565b5050503480156200008257600080fd5b50620003ea565b600081519050919050565b7f4e487b7100000000000000000000000000000000000000000000000000000000600052604160045260246000fd5b7f4e487b7100000000000000000000000000000000000000000000000000000000600052602260045260246000fd5b600060028204905060018216806200010b57607f821691505b602082108103620001215762000120620000c3565b5b50919050565b60008190508160005260206000209050919050565b60006020601f8301049050919050565b600082821b905092915050565b6000600883026200018b7fffffffffffffffffffffffffffffffffffffffffffffffffffffffffffffffff826200014c565b6200019786836200014c565b95508019841693508086168417925050509392505050565b6000819050919050565b6000819050919050565b6000620001e4620001de620001d884620001af565b620001b9565b620001af565b9050919050565b6000819050919050565b6200020083620001c3565b620002186200020f82620001eb565b84845462000159565b825550505050565b600090565b6200022f62000220565b6200023c818484620001f5565b505050565b5b8181101562000264576200025860008262000225565b60018101905062000242565b5050565b601f821115620002b3576200027d8162000127565b62000288846200013c565b8101602085101562000298578190505b620002b0620002a7856200013c565b83018262000241565b50505b505050565b600082821c905092915050565b6000620002d860001984600802620002b8565b1980831691505092915050565b6000620002f38383620002c5565b9150826002028217905092915050565b6200030e8262000089565b67ffffffffffffffff8111156200032a576200032962000094565b5b620003368254620000f2565b6200034382828562000268565b600060209050601f8311600181146200037b576000841562000366578287015190505b620003728582620002e5565b865550620003e2565b601f1984166200038b8662000127565b60005b82811015620003b5578489015182556001820191506020850194506020810190506200038e565b86831015620003d55784890151620003d1601f891682620002c5565b8355505b6001600288020188555050505b505050505050565b610b4580620003fa6000396000f3fe608060405234801561001057600080fd5b506004361061009e5760003560e01c806377ec2b551161006657806377ec2b55146101375780638bab8dd5146101565780639e7a13ad14610186578063bc832d4e146101b7578063ef0f3013146101d35761009e565b80632e64cec1146100a3578063471f7cdf146100c157806347535d7b146100df5780634f2be91f146100fd5780636057361d1461011b575b600080fd5b6100ab6101f1565b6040516100b89190610452565b60405180910390f35b6100c96101fa565b6040516100d69190610452565b60405180910390f35b6100e7610200565b6040516100f49190610488565b60405180910390f35b610105610213565b6040516101129190610452565b60405180910390f35b610135600480360381019061013091906104e3565b61021c565b005b61013f610226565b60405161014d9291906105a0565b60405180910390f35b610170600480360381019061016b9190610705565b6102c0565b60405161017d9190610452565b60405180910390f35b6101a0600480360381019061019b91906104e3565b6102ee565b6040516101ae9291906105a0565b60405180910390f35b6101d160048036038101906101cc919061074e565b6103aa565b005b6101db610433565b6040516101e891906107c3565b60405180910390f35b60008054905090565b60005481565b600160009054906101000a900460ff1681565b60006002905090565b8060008190555050565b600380600001549080600101805461023d9061080d565b80601f01602080910402602001604051908101604052809291908181526020018280546102699061080d565b80156102b65780601f1061028b576101008083540402835291602001916102b6565b820191906000526020600020905b81548152906001019060200180831161029957829003601f168201915b5050505050905082565b6006818051602081018201805184825260208301602085012081835280955050505050506000915090505481565b600581815481106102fe57600080fd5b90600052602060002090600202016000915090508060000154908060010180546103279061080d565b80601f01602080910402602001604051908101604052809291908181526020018280546103539061080d565b80156103a05780601f10610375576101008083540402835291602001916103a0565b820191906000526020600020905b81548152906001019060200180831161038357829003601f168201915b5050505050905082565b6005604051806040016040528084815260200183815250908060018154018082558091505060019003906000526020600020906002020160009091909190915060008201518160000155602082015181600101908161040991906109ea565b5050508160068260405161041d9190610af8565b9081526020016040518091039020819055505050565b60025481565b6000819050919050565b61044c81610439565b82525050565b60006020820190506104676000830184610443565b92915050565b60008115159050919050565b6104828161046d565b82525050565b600060208201905061049d6000830184610479565b92915050565b6000604051905090565b600080fd5b600080fd5b6104c081610439565b81146104cb57600080fd5b50565b6000813590506104dd816104b7565b92915050565b6000602082840312156104f9576104f86104ad565b5b6000610507848285016104ce565b91505092915050565b600081519050919050565b600082825260208201905092915050565b60005b8381101561054a57808201518184015260208101905061052f565b60008484015250505050565b6000601f19601f8301169050919050565b600061057282610510565b61057c818561051b565b935061058c81856020860161052c565b61059581610556565b840191505092915050565b60006040820190506105b56000830185610443565b81810360208301526105c78184610567565b90509392505050565b600080fd5b600080fd5b7f4e487b7100000000000000000000000000000000000000000000000000000000600052604160045260246000fd5b61061282610556565b810181811067ffffffffffffffff82111715610631576106306105da565b5b80604052505050565b60006106446104a3565b90506106508282610609565b919050565b600067ffffffffffffffff8211156106705761066f6105da565b5b61067982610556565b9050602081019050919050565b82818337600083830152505050565b60006106a86106a384610655565b61063a565b9050828152602081018484840111156106c4576106c36105d5565b5b6106cf848285610686565b509392505050565b600082601f8301126106ec576106eb6105d0565b5b81356106fc848260208601610695565b91505092915050565b60006020828403121561071b5761071a6104ad565b5b600082013567ffffffffffffffff811115610739576107386104b2565b5b610745848285016106d7565b91505092915050565b60008060408385031215610765576107646104ad565b5b6000610773858286016104ce565b925050602083013567ffffffffffffffff811115610794576107936104b2565b5b6107a0858286016106d7565b9150509250929050565b6000819050919050565b6107bd816107aa565b82525050565b60006020820190506107d860008301846107b4565b92915050565b7f4e487b7100000000000000000000000000000000000000000000000000000000600052602260045260246000fd5b6000600282049050600182168061082557607f821691505b602082108103610838576108376107de565b5b50919050565b60008190508160005260206000209050919050565b60006020601f8301049050919050565b600082821b905092915050565b6000600883026108a07fffffffffffffffffffffffffffffffffffffffffffffffffffffffffffffffff82610863565b6108aa8683610863565b95508019841693508086168417925050509392505050565b6000819050919050565b60006108e76108e26108dd84610439565b6108c2565b610439565b9050919050565b6000819050919050565b610901836108cc565b61091561090d826108ee565b848454610870565b825550505050565b600090565b61092a61091d565b6109358184846108f8565b505050565b5b818110156109595761094e600082610922565b60018101905061093b565b5050565b601f82111561099e5761096f8161083e565b61097884610853565b81016020851015610987578190505b61099b61099385610853565b83018261093a565b50505b505050565b600082821c905092915050565b60006109c1600019846008026109a3565b1980831691505092915050565b60006109da83836109b0565b9150826002028217905092915050565b6109f382610510565b67ffffffffffffffff811115610a0c57610a0b6105da565b5b610a16825461080d565b610a2182828561095d565b600060209050601f831160018114610a545760008415610a42578287015190505b610a4c85826109ce565b865550610ab4565b601f198416610a628661083e565b60005b82811015610a8a57848901518255600182019150602085019450602081019050610a65565b86831015610aa75784890151610aa3601f8916826109b0565b8355505b6001600288020188555050505b505050505050565b600081905092915050565b6000610ad282610510565b610adc8185610abc565b9350610aec81856020860161052c565b80840191505092915050565b6000610b048284610ac7565b91508190509291505056fea2646970667358221220fd9a08d00b901440b07b3acbc0cdbf88b06de2101961e8c0c4d0a3bae75b547464736f6c63430008120033",
					"opcodes": "PUSH1 0x80 PUSH1 0x40 MSTORE PUSH1 0x40 MLOAD DUP1 PUSH1 0x40 ADD PUSH1 0x40 MSTORE DUP1 PUSH1 0x2 DUP2 MSTORE PUSH1 0x20 ADD PUSH1 0x40 MLOAD DUP1 PUSH1 0x40 ADD PUSH1 0x40 MSTORE DUP1 PUSH1 0x5 DUP2 MSTORE PUSH1 0x20 ADD PUSH32 0x657277696E000000000000000000000000000000000000000000000000000000 DUP2 MSTORE POP DUP2 MSTORE POP PUSH1 0x3 PUSH1 0x0 DUP3 ADD MLOAD DUP2 PUSH1 0x0 ADD SSTORE PUSH1 0x20 DUP3 ADD MLOAD DUP2 PUSH1 0x1 ADD SWAP1 DUP2 PUSH3 0x72 SWAP2 SWAP1 PUSH3 0x303 JUMP JUMPDEST POP POP POP CALLVALUE DUP1 ISZERO PUSH3 0x82 JUMPI PUSH1 0x0 DUP1 REVERT JUMPDEST POP PUSH3 0x3EA JUMP JUMPDEST PUSH1 0x0 DUP2 MLOAD SWAP1 POP SWAP2 SWAP1 POP JUMP JUMPDEST PUSH32 0x4E487B7100000000000000000000000000000000000000000000000000000000 PUSH1 0x0 MSTORE PUSH1 0x41 PUSH1 0x4 MSTORE PUSH1 0x24 PUSH1 0x0 REVERT JUMPDEST PUSH32 0x4E487B7100000000000000000000000000000000000000000000000000000000 PUSH1 0x0 MSTORE PUSH1 0x22 PUSH1 0x4 MSTORE PUSH1 0x24 PUSH1 0x0 REVERT JUMPDEST PUSH1 0x0 PUSH1 0x2 DUP3 DIV SWAP1 POP PUSH1 0x1 DUP3 AND DUP1 PUSH3 0x10B JUMPI PUSH1 0x7F DUP3 AND SWAP2 POP JUMPDEST PUSH1 0x20 DUP3 LT DUP2 SUB PUSH3 0x121 JUMPI PUSH3 0x120 PUSH3 0xC3 JUMP JUMPDEST JUMPDEST POP SWAP2 SWAP1 POP JUMP JUMPDEST PUSH1 0x0 DUP2 SWAP1 POP DUP2 PUSH1 0x0 MSTORE PUSH1 0x20 PUSH1 0x0 KECCAK256 SWAP1 POP SWAP2 SWAP1 POP JUMP JUMPDEST PUSH1 0x0 PUSH1 0x20 PUSH1 0x1F DUP4 ADD DIV SWAP1 POP SWAP2 SWAP1 POP JUMP JUMPDEST PUSH1 0x0 DUP3 DUP3 SHL SWAP1 POP SWAP3 SWAP2 POP POP JUMP JUMPDEST PUSH1 0x0 PUSH1 0x8 DUP4 MUL PUSH3 0x18B PUSH32 0xFFFFFFFFFFFFFFFFFFFFFFFFFFFFFFFFFFFFFFFFFFFFFFFFFFFFFFFFFFFFFFFF DUP3 PUSH3 0x14C JUMP JUMPDEST PUSH3 0x197 DUP7 DUP4 PUSH3 0x14C JUMP JUMPDEST SWAP6 POP DUP1 NOT DUP5 AND SWAP4 POP DUP1 DUP7 AND DUP5 OR SWAP3 POP POP POP SWAP4 SWAP3 POP POP POP JUMP JUMPDEST PUSH1 0x0 DUP2 SWAP1 POP SWAP2 SWAP1 POP JUMP JUMPDEST PUSH1 0x0 DUP2 SWAP1 POP SWAP2 SWAP1 POP JUMP JUMPDEST PUSH1 0x0 PUSH3 0x1E4 PUSH3 0x1DE PUSH3 0x1D8 DUP5 PUSH3 0x1AF JUMP JUMPDEST PUSH3 0x1B9 JUMP JUMPDEST PUSH3 0x1AF JUMP JUMPDEST SWAP1 POP SWAP2 SWAP1 POP JUMP JUMPDEST PUSH1 0x0 DUP2 SWAP1 POP SWAP2 SWAP1 POP JUMP JUMPDEST PUSH3 0x200 DUP4 PUSH3 0x1C3 JUMP JUMPDEST PUSH3 0x218 PUSH3 0x20F DUP3 PUSH3 0x1EB JUMP JUMPDEST DUP5 DUP5 SLOAD PUSH3 0x159 JUMP JUMPDEST DUP3 SSTORE POP POP POP POP JUMP JUMPDEST PUSH1 0x0 SWAP1 JUMP JUMPDEST PUSH3 0x22F PUSH3 0x220 JUMP JUMPDEST PUSH3 0x23C DUP2 DUP5 DUP5 PUSH3 0x1F5 JUMP JUMPDEST POP POP POP JUMP JUMPDEST JUMPDEST DUP2 DUP2 LT ISZERO PUSH3 0x264 JUMPI PUSH3 0x258 PUSH1 0x0 DUP3 PUSH3 0x225 JUMP JUMPDEST PUSH1 0x1 DUP2 ADD SWAP1 POP PUSH3 0x242 JUMP JUMPDEST POP POP JUMP JUMPDEST PUSH1 0x1F DUP3 GT ISZERO PUSH3 0x2B3 JUMPI PUSH3 0x27D DUP2 PUSH3 0x127 JUMP JUMPDEST PUSH3 0x288 DUP5 PUSH3 0x13C JUMP JUMPDEST DUP2 ADD PUSH1 0x20 DUP6 LT ISZERO PUSH3 0x298 JUMPI DUP2 SWAP1 POP JUMPDEST PUSH3 0x2B0 PUSH3 0x2A7 DUP6 PUSH3 0x13C JUMP JUMPDEST DUP4 ADD DUP3 PUSH3 0x241 JUMP JUMPDEST POP POP JUMPDEST POP POP POP JUMP JUMPDEST PUSH1 0x0 DUP3 DUP3 SHR SWAP1 POP SWAP3 SWAP2 POP POP JUMP JUMPDEST PUSH1 0x0 PUSH3 0x2D8 PUSH1 0x0 NOT DUP5 PUSH1 0x8 MUL PUSH3 0x2B8 JUMP JUMPDEST NOT DUP1 DUP4 AND SWAP2 POP POP SWAP3 SWAP2 POP POP JUMP JUMPDEST PUSH1 0x0 PUSH3 0x2F3 DUP4 DUP4 PUSH3 0x2C5 JUMP JUMPDEST SWAP2 POP DUP3 PUSH1 0x2 MUL DUP3 OR SWAP1 POP SWAP3 SWAP2 POP POP JUMP JUMPDEST PUSH3 0x30E DUP3 PUSH3 0x89 JUMP JUMPDEST PUSH8 0xFFFFFFFFFFFFFFFF DUP2 GT ISZERO PUSH3 0x32A JUMPI PUSH3 0x329 PUSH3 0x94 JUMP JUMPDEST JUMPDEST PUSH3 0x336 DUP3 SLOAD PUSH3 0xF2 JUMP JUMPDEST PUSH3 0x343 DUP3 DUP3 DUP6 PUSH3 0x268 JUMP JUMPDEST PUSH1 0x0 PUSH1 0x20 SWAP1 POP PUSH1 0x1F DUP4 GT PUSH1 0x1 DUP2 EQ PUSH3 0x37B JUMPI PUSH1 0x0 DUP5 ISZERO PUSH3 0x366 JUMPI DUP3 DUP8 ADD MLOAD SWAP1 POP JUMPDEST PUSH3 0x372 DUP6 DUP3 PUSH3 0x2E5 JUMP JUMPDEST DUP7 SSTORE POP PUSH3 0x3E2 JUMP JUMPDEST PUSH1 0x1F NOT DUP5 AND PUSH3 0x38B DUP7 PUSH3 0x127 JUMP JUMPDEST PUSH1 0x0 JUMPDEST DUP3 DUP2 LT ISZERO PUSH3 0x3B5 JUMPI DUP5 DUP10 ADD MLOAD DUP3 SSTORE PUSH1 0x1 DUP3 ADD SWAP2 POP PUSH1 0x20 DUP6 ADD SWAP5 POP PUSH1 0x20 DUP2 ADD SWAP1 POP PUSH3 0x38E JUMP JUMPDEST DUP7 DUP4 LT ISZERO PUSH3 0x3D5 JUMPI DUP5 DUP10 ADD MLOAD PUSH3 0x3D1 PUSH1 0x1F DUP10 AND DUP3 PUSH3 0x2C5 JUMP JUMPDEST DUP4 SSTORE POP JUMPDEST PUSH1 0x1 PUSH1 0x2 DUP9 MUL ADD DUP9 SSTORE POP POP POP JUMPDEST POP POP POP POP POP POP JUMP JUMPDEST PUSH2 0xB45 DUP1 PUSH3 0x3FA PUSH1 0x0 CODECOPY PUSH1 0x0 RETURN INVALID PUSH1 0x80 PUSH1 0x40 MSTORE CALLVALUE DUP1 ISZERO PUSH2 0x10 JUMPI PUSH1 0x0 DUP1 REVERT JUMPDEST POP PUSH1 0x4 CALLDATASIZE LT PUSH2 0x9E JUMPI PUSH1 0x0 CALLDATALOAD PUSH1 0xE0 SHR DUP1 PUSH4 0x77EC2B55 GT PUSH2 0x66 JUMPI DUP1 PUSH4 0x77EC2B55 EQ PUSH2 0x137 JUMPI DUP1 PUSH4 0x8BAB8DD5 EQ PUSH2 0x156 JUMPI DUP1 PUSH4 0x9E7A13AD EQ PUSH2 0x186 JUMPI DUP1 PUSH4 0xBC832D4E EQ PUSH2 0x1B7 JUMPI DUP1 PUSH4 0xEF0F3013 EQ PUSH2 0x1D3 JUMPI PUSH2 0x9E JUMP JUMPDEST DUP1 PUSH4 0x2E64CEC1 EQ PUSH2 0xA3 JUMPI DUP1 PUSH4 0x471F7CDF EQ PUSH2 0xC1 JUMPI DUP1 PUSH4 0x47535D7B EQ PUSH2 0xDF JUMPI DUP1 PUSH4 0x4F2BE91F EQ PUSH2 0xFD JUMPI DUP1 PUSH4 0x6057361D EQ PUSH2 0x11B JUMPI JUMPDEST PUSH1 0x0 DUP1 REVERT JUMPDEST PUSH2 0xAB PUSH2 0x1F1 JUMP JUMPDEST PUSH1 0x40 MLOAD PUSH2 0xB8 SWAP2 SWAP1 PUSH2 0x452 JUMP JUMPDEST PUSH1 0x40 MLOAD DUP1 SWAP2 SUB SWAP1 RETURN JUMPDEST PUSH2 0xC9 PUSH2 0x1FA JUMP JUMPDEST PUSH1 0x40 MLOAD PUSH2 0xD6 SWAP2 SWAP1 PUSH2 0x452 JUMP JUMPDEST PUSH1 0x40 MLOAD DUP1 SWAP2 SUB SWAP1 RETURN JUMPDEST PUSH2 0xE7 PUSH2 0x200 JUMP JUMPDEST PUSH1 0x40 MLOAD PUSH2 0xF4 SWAP2 SWAP1 PUSH2 0x488 JUMP JUMPDEST PUSH1 0x40 MLOAD DUP1 SWAP2 SUB SWAP1 RETURN JUMPDEST PUSH2 0x105 PUSH2 0x213 JUMP JUMPDEST PUSH1 0x40 MLOAD PUSH2 0x112 SWAP2 SWAP1 PUSH2 0x452 JUMP JUMPDEST PUSH1 0x40 MLOAD DUP1 SWAP2 SUB SWAP1 RETURN JUMPDEST PUSH2 0x135 PUSH1 0x4 DUP1 CALLDATASIZE SUB DUP2 ADD SWAP1 PUSH2 0x130 SWAP2 SWAP1 PUSH2 0x4E3 JUMP JUMPDEST PUSH2 0x21C JUMP JUMPDEST STOP JUMPDEST PUSH2 0x13F PUSH2 0x226 JUMP JUMPDEST PUSH1 0x40 MLOAD PUSH2 0x14D SWAP3 SWAP2 SWAP1 PUSH2 0x5A0 JUMP JUMPDEST PUSH1 0x40 MLOAD DUP1 SWAP2 SUB SWAP1 RETURN JUMPDEST PUSH2 0x170 PUSH1 0x4 DUP1 CALLDATASIZE SUB DUP2 ADD SWAP1 PUSH2 0x16B SWAP2 SWAP1 PUSH2 0x705 JUMP JUMPDEST PUSH2 0x2C0 JUMP JUMPDEST PUSH1 0x40 MLOAD PUSH2 0x17D SWAP2 SWAP1 PUSH2 0x452 JUMP JUMPDEST PUSH1 0x40 MLOAD DUP1 SWAP2 SUB SWAP1 RETURN JUMPDEST PUSH2 0x1A0 PUSH1 0x4 DUP1 CALLDATASIZE SUB DUP2 ADD SWAP1 PUSH2 0x19B SWAP2 SWAP1 PUSH2 0x4E3 JUMP JUMPDEST PUSH2 0x2EE JUMP JUMPDEST PUSH1 0x40 MLOAD PUSH2 0x1AE SWAP3 SWAP2 SWAP1 PUSH2 0x5A0 JUMP JUMPDEST PUSH1 0x40 MLOAD DUP1 SWAP2 SUB SWAP1 RETURN JUMPDEST PUSH2 0x1D1 PUSH1 0x4 DUP1 CALLDATASIZE SUB DUP2 ADD SWAP1 PUSH2 0x1CC SWAP2 SWAP1 PUSH2 0x74E JUMP JUMPDEST PUSH2 0x3AA JUMP JUMPDEST STOP JUMPDEST PUSH2 0x1DB PUSH2 0x433 JUMP JUMPDEST PUSH1 0x40 MLOAD PUSH2 0x1E8 SWAP2 SWAP1 PUSH2 0x7C3 JUMP JUMPDEST PUSH1 0x40 MLOAD DUP1 SWAP2 SUB SWAP1 RETURN JUMPDEST PUSH1 0x0 DUP1 SLOAD SWAP1 POP SWAP1 JUMP JUMPDEST PUSH1 0x0 SLOAD DUP2 JUMP JUMPDEST PUSH1 0x1 PUSH1 0x0 SWAP1 SLOAD SWAP1 PUSH2 0x100 EXP SWAP1 DIV PUSH1 0xFF AND DUP2 JUMP JUMPDEST PUSH1 0x0 PUSH1 0x2 SWAP1 POP SWAP1 JUMP JUMPDEST DUP1 PUSH1 0x0 DUP2 SWAP1 SSTORE POP POP JUMP JUMPDEST PUSH1 0x3 DUP1 PUSH1 0x0 ADD SLOAD SWAP1 DUP1 PUSH1 0x1 ADD DUP1 SLOAD PUSH2 0x23D SWAP1 PUSH2 0x80D JUMP JUMPDEST DUP1 PUSH1 0x1F ADD PUSH1 0x20 DUP1 SWAP2 DIV MUL PUSH1 0x20 ADD PUSH1 0x40 MLOAD SWAP1 DUP2 ADD PUSH1 0x40 MSTORE DUP1 SWAP3 SWAP2 SWAP1 DUP2 DUP2 MSTORE PUSH1 0x20 ADD DUP3 DUP1 SLOAD PUSH2 0x269 SWAP1 PUSH2 0x80D JUMP JUMPDEST DUP1 ISZERO PUSH2 0x2B6 JUMPI DUP1 PUSH1 0x1F LT PUSH2 0x28B JUMPI PUSH2 0x100 DUP1 DUP4 SLOAD DIV MUL DUP4 MSTORE SWAP2 PUSH1 0x20 ADD SWAP2 PUSH2 0x2B6 JUMP JUMPDEST DUP3 ADD SWAP2 SWAP1 PUSH1 0x0 MSTORE PUSH1 0x20 PUSH1 0x0 KECCAK256 SWAP1 JUMPDEST DUP2 SLOAD DUP2 MSTORE SWAP1 PUSH1 0x1 ADD SWAP1 PUSH1 0x20 ADD DUP1 DUP4 GT PUSH2 0x299 JUMPI DUP3 SWAP1 SUB PUSH1 0x1F AND DUP3 ADD SWAP2 JUMPDEST POP POP POP POP POP SWAP1 POP DUP3 JUMP JUMPDEST PUSH1 0x6 DUP2 DUP1 MLOAD PUSH1 0x20 DUP2 ADD DUP3 ADD DUP1 MLOAD DUP5 DUP3 MSTORE PUSH1 0x20 DUP4 ADD PUSH1 0x20 DUP6 ADD KECCAK256 DUP2 DUP4 MSTORE DUP1 SWAP6 POP POP POP POP POP POP PUSH1 0x0 SWAP2 POP SWAP1 POP SLOAD DUP2 JUMP JUMPDEST PUSH1 0x5 DUP2 DUP2 SLOAD DUP2 LT PUSH2 0x2FE JUMPI PUSH1 0x0 DUP1 REVERT JUMPDEST SWAP1 PUSH1 0x0 MSTORE PUSH1 0x20 PUSH1 0x0 KECCAK256 SWAP1 PUSH1 0x2 MUL ADD PUSH1 0x0 SWAP2 POP SWAP1 POP DUP1 PUSH1 0x0 ADD SLOAD SWAP1 DUP1 PUSH1 0x1 ADD DUP1 SLOAD PUSH2 0x327 SWAP1 PUSH2 0x80D JUMP JUMPDEST DUP1 PUSH1 0x1F ADD PUSH1 0x20 DUP1 SWAP2 DIV MUL PUSH1 0x20 ADD PUSH1 0x40 MLOAD SWAP1 DUP2 ADD PUSH1 0x40 MSTORE DUP1 SWAP3 SWAP2 SWAP1 DUP2 DUP2 MSTORE PUSH1 0x20 ADD DUP3 DUP1 SLOAD PUSH2 0x353 SWAP1 PUSH2 0x80D JUMP JUMPDEST DUP1 ISZERO PUSH2 0x3A0 JUMPI DUP1 PUSH1 0x1F LT PUSH2 0x375 JUMPI PUSH2 0x100 DUP1 DUP4 SLOAD DIV MUL DUP4 MSTORE SWAP2 PUSH1 0x20 ADD SWAP2 PUSH2 0x3A0 JUMP JUMPDEST DUP3 ADD SWAP2 SWAP1 PUSH1 0x0 MSTORE PUSH1 0x20 PUSH1 0x0 KECCAK256 SWAP1 JUMPDEST DUP2 SLOAD DUP2 MSTORE SWAP1 PUSH1 0x1 ADD SWAP1 PUSH1 0x20 ADD DUP1 DUP4 GT PUSH2 0x383 JUMPI DUP3 SWAP1 SUB PUSH1 0x1F AND DUP3 ADD SWAP2 JUMPDEST POP POP POP POP POP SWAP1 POP DUP3 JUMP JUMPDEST PUSH1 0x5 PUSH1 0x40 MLOAD DUP1 PUSH1 0x40 ADD PUSH1 0x40 MSTORE DUP1 DUP5 DUP2 MSTORE PUSH1 0x20 ADD DUP4 DUP2 MSTORE POP SWAP1 DUP1 PUSH1 0x1 DUP2 SLOAD ADD DUP1 DUP3 SSTORE DUP1 SWAP2 POP POP PUSH1 0x1 SWAP1 SUB SWAP1 PUSH1 0x0 MSTORE PUSH1 0x20 PUSH1 0x0 KECCAK256 SWAP1 PUSH1 0x2 MUL ADD PUSH1 0x0 SWAP1 SWAP2 SWAP1 SWAP2 SWAP1 SWAP2 POP PUSH1 0x0 DUP3 ADD MLOAD DUP2 PUSH1 0x0 ADD SSTORE PUSH1 0x20 DUP3 ADD MLOAD DUP2 PUSH1 0x1 ADD SWAP1 DUP2 PUSH2 0x409 SWAP2 SWAP1 PUSH2 0x9EA JUMP JUMPDEST POP POP POP DUP2 PUSH1 0x6 DUP3 PUSH1 0x40 MLOAD PUSH2 0x41D SWAP2 SWAP1 PUSH2 0xAF8 JUMP JUMPDEST SWAP1 DUP2 MSTORE PUSH1 0x20 ADD PUSH1 0x40 MLOAD DUP1 SWAP2 SUB SWAP1 KECCAK256 DUP2 SWAP1 SSTORE POP POP POP JUMP JUMPDEST PUSH1 0x2 SLOAD DUP2 JUMP JUMPDEST PUSH1 0x0 DUP2 SWAP1 POP SWAP2 SWAP1 POP JUMP JUMPDEST PUSH2 0x44C DUP2 PUSH2 0x439 JUMP JUMPDEST DUP3 MSTORE POP POP JUMP JUMPDEST PUSH1 0x0 PUSH1 0x20 DUP3 ADD SWAP1 POP PUSH2 0x467 PUSH1 0x0 DUP4 ADD DUP5 PUSH2 0x443 JUMP JUMPDEST SWAP3 SWAP2 POP POP JUMP JUMPDEST PUSH1 0x0 DUP2 ISZERO ISZERO SWAP1 POP SWAP2 SWAP1 POP JUMP JUMPDEST PUSH2 0x482 DUP2 PUSH2 0x46D JUMP JUMPDEST DUP3 MSTORE POP POP JUMP JUMPDEST PUSH1 0x0 PUSH1 0x20 DUP3 ADD SWAP1 POP PUSH2 0x49D PUSH1 0x0 DUP4 ADD DUP5 PUSH2 0x479 JUMP JUMPDEST SWAP3 SWAP2 POP POP JUMP JUMPDEST PUSH1 0x0 PUSH1 0x40 MLOAD SWAP1 POP SWAP1 JUMP JUMPDEST PUSH1 0x0 DUP1 REVERT JUMPDEST PUSH1 0x0 DUP1 REVERT JUMPDEST PUSH2 0x4C0 DUP2 PUSH2 0x439 JUMP JUMPDEST DUP2 EQ PUSH2 0x4CB JUMPI PUSH1 0x0 DUP1 REVERT JUMPDEST POP JUMP JUMPDEST PUSH1 0x0 DUP2 CALLDATALOAD SWAP1 POP PUSH2 0x4DD DUP2 PUSH2 0x4B7 JUMP JUMPDEST SWAP3 SWAP2 POP POP JUMP JUMPDEST PUSH1 0x0 PUSH1 0x20 DUP3 DUP5 SUB SLT ISZERO PUSH2 0x4F9 JUMPI PUSH2 0x4F8 PUSH2 0x4AD JUMP JUMPDEST JUMPDEST PUSH1 0x0 PUSH2 0x507 DUP5 DUP3 DUP6 ADD PUSH2 0x4CE JUMP JUMPDEST SWAP2 POP POP SWAP3 SWAP2 POP POP JUMP JUMPDEST PUSH1 0x0 DUP2 MLOAD SWAP1 POP SWAP2 SWAP1 POP JUMP JUMPDEST PUSH1 0x0 DUP3 DUP3 MSTORE PUSH1 0x20 DUP3 ADD SWAP1 POP SWAP3 SWAP2 POP POP JUMP JUMPDEST PUSH1 0x0 JUMPDEST DUP4 DUP2 LT ISZERO PUSH2 0x54A JUMPI DUP1 DUP3 ADD MLOAD DUP2 DUP5 ADD MSTORE PUSH1 0x20 DUP2 ADD SWAP1 POP PUSH2 0x52F JUMP JUMPDEST PUSH1 0x0 DUP5 DUP5 ADD MSTORE POP POP POP POP JUMP JUMPDEST PUSH1 0x0 PUSH1 0x1F NOT PUSH1 0x1F DUP4 ADD AND SWAP1 POP SWAP2 SWAP1 POP JUMP JUMPDEST PUSH1 0x0 PUSH2 0x572 DUP3 PUSH2 0x510 JUMP JUMPDEST PUSH2 0x57C DUP2 DUP6 PUSH2 0x51B JUMP JUMPDEST SWAP4 POP PUSH2 0x58C DUP2 DUP6 PUSH1 0x20 DUP7 ADD PUSH2 0x52C JUMP JUMPDEST PUSH2 0x595 DUP2 PUSH2 0x556 JUMP JUMPDEST DUP5 ADD SWAP2 POP POP SWAP3 SWAP2 POP POP JUMP JUMPDEST PUSH1 0x0 PUSH1 0x40 DUP3 ADD SWAP1 POP PUSH2 0x5B5 PUSH1 0x0 DUP4 ADD DUP6 PUSH2 0x443 JUMP JUMPDEST DUP2 DUP2 SUB PUSH1 0x20 DUP4 ADD MSTORE PUSH2 0x5C7 DUP2 DUP5 PUSH2 0x567 JUMP JUMPDEST SWAP1 POP SWAP4 SWAP3 POP POP POP JUMP JUMPDEST PUSH1 0x0 DUP1 REVERT JUMPDEST PUSH1 0x0 DUP1 REVERT JUMPDEST PUSH32 0x4E487B7100000000000000000000000000000000000000000000000000000000 PUSH1 0x0 MSTORE PUSH1 0x41 PUSH1 0x4 MSTORE PUSH1 0x24 PUSH1 0x0 REVERT JUMPDEST PUSH2 0x612 DUP3 PUSH2 0x556 JUMP JUMPDEST DUP2 ADD DUP2 DUP2 LT PUSH8 0xFFFFFFFFFFFFFFFF DUP3 GT OR ISZERO PUSH2 0x631 JUMPI PUSH2 0x630 PUSH2 0x5DA JUMP JUMPDEST JUMPDEST DUP1 PUSH1 0x40 MSTORE POP POP POP JUMP JUMPDEST PUSH1 0x0 PUSH2 0x644 PUSH2 0x4A3 JUMP JUMPDEST SWAP1 POP PUSH2 0x650 DUP3 DUP3 PUSH2 0x609 JUMP JUMPDEST SWAP2 SWAP1 POP JUMP JUMPDEST PUSH1 0x0 PUSH8 0xFFFFFFFFFFFFFFFF DUP3 GT ISZERO PUSH2 0x670 JUMPI PUSH2 0x66F PUSH2 0x5DA JUMP JUMPDEST JUMPDEST PUSH2 0x679 DUP3 PUSH2 0x556 JUMP JUMPDEST SWAP1 POP PUSH1 0x20 DUP2 ADD SWAP1 POP SWAP2 SWAP1 POP JUMP JUMPDEST DUP3 DUP2 DUP4 CALLDATACOPY PUSH1 0x0 DUP4 DUP4 ADD MSTORE POP POP POP JUMP JUMPDEST PUSH1 0x0 PUSH2 0x6A8 PUSH2 0x6A3 DUP5 PUSH2 0x655 JUMP JUMPDEST PUSH2 0x63A JUMP JUMPDEST SWAP1 POP DUP3 DUP2 MSTORE PUSH1 0x20 DUP2 ADD DUP5 DUP5 DUP5 ADD GT ISZERO PUSH2 0x6C4 JUMPI PUSH2 0x6C3 PUSH2 0x5D5 JUMP JUMPDEST JUMPDEST PUSH2 0x6CF DUP5 DUP3 DUP6 PUSH2 0x686 JUMP JUMPDEST POP SWAP4 SWAP3 POP POP POP JUMP JUMPDEST PUSH1 0x0 DUP3 PUSH1 0x1F DUP4 ADD SLT PUSH2 0x6EC JUMPI PUSH2 0x6EB PUSH2 0x5D0 JUMP JUMPDEST JUMPDEST DUP2 CALLDATALOAD PUSH2 0x6FC DUP5 DUP3 PUSH1 0x20 DUP7 ADD PUSH2 0x695 JUMP JUMPDEST SWAP2 POP POP SWAP3 SWAP2 POP POP JUMP JUMPDEST PUSH1 0x0 PUSH1 0x20 DUP3 DUP5 SUB SLT ISZERO PUSH2 0x71B JUMPI PUSH2 0x71A PUSH2 0x4AD JUMP JUMPDEST JUMPDEST PUSH1 0x0 DUP3 ADD CALLDATALOAD PUSH8 0xFFFFFFFFFFFFFFFF DUP2 GT ISZERO PUSH2 0x739 JUMPI PUSH2 0x738 PUSH2 0x4B2 JUMP JUMPDEST JUMPDEST PUSH2 0x745 DUP5 DUP3 DUP6 ADD PUSH2 0x6D7 JUMP JUMPDEST SWAP2 POP POP SWAP3 SWAP2 POP POP JUMP JUMPDEST PUSH1 0x0 DUP1 PUSH1 0x40 DUP4 DUP6 SUB SLT ISZERO PUSH2 0x765 JUMPI PUSH2 0x764 PUSH2 0x4AD JUMP JUMPDEST JUMPDEST PUSH1 0x0 PUSH2 0x773 DUP6 DUP3 DUP7 ADD PUSH2 0x4CE JUMP JUMPDEST SWAP3 POP POP PUSH1 0x20 DUP4 ADD CALLDATALOAD PUSH8 0xFFFFFFFFFFFFFFFF DUP2 GT ISZERO PUSH2 0x794 JUMPI PUSH2 0x793 PUSH2 0x4B2 JUMP JUMPDEST JUMPDEST PUSH2 0x7A0 DUP6 DUP3 DUP7 ADD PUSH2 0x6D7 JUMP JUMPDEST SWAP2 POP POP SWAP3 POP SWAP3 SWAP1 POP JUMP JUMPDEST PUSH1 0x0 DUP2 SWAP1 POP SWAP2 SWAP1 POP JUMP JUMPDEST PUSH2 0x7BD DUP2 PUSH2 0x7AA JUMP JUMPDEST DUP3 MSTORE POP POP JUMP JUMPDEST PUSH1 0x0 PUSH1 0x20 DUP3 ADD SWAP1 POP PUSH2 0x7D8 PUSH1 0x0 DUP4 ADD DUP5 PUSH2 0x7B4 JUMP JUMPDEST SWAP3 SWAP2 POP POP JUMP JUMPDEST PUSH32 0x4E487B7100000000000000000000000000000000000000000000000000000000 PUSH1 0x0 MSTORE PUSH1 0x22 PUSH1 0x4 MSTORE PUSH1 0x24 PUSH1 0x0 REVERT JUMPDEST PUSH1 0x0 PUSH1 0x2 DUP3 DIV SWAP1 POP PUSH1 0x1 DUP3 AND DUP1 PUSH2 0x825 JUMPI PUSH1 0x7F DUP3 AND SWAP2 POP JUMPDEST PUSH1 0x20 DUP3 LT DUP2 SUB PUSH2 0x838 JUMPI PUSH2 0x837 PUSH2 0x7DE JUMP JUMPDEST JUMPDEST POP SWAP2 SWAP1 POP JUMP JUMPDEST PUSH1 0x0 DUP2 SWAP1 POP DUP2 PUSH1 0x0 MSTORE PUSH1 0x20 PUSH1 0x0 KECCAK256 SWAP1 POP SWAP2 SWAP1 POP JUMP JUMPDEST PUSH1 0x0 PUSH1 0x20 PUSH1 0x1F DUP4 ADD DIV SWAP1 POP SWAP2 SWAP1 POP JUMP JUMPDEST PUSH1 0x0 DUP3 DUP3 SHL SWAP1 POP SWAP3 SWAP2 POP POP JUMP JUMPDEST PUSH1 0x0 PUSH1 0x8 DUP4 MUL PUSH2 0x8A0 PUSH32 0xFFFFFFFFFFFFFFFFFFFFFFFFFFFFFFFFFFFFFFFFFFFFFFFFFFFFFFFFFFFFFFFF DUP3 PUSH2 0x863 JUMP JUMPDEST PUSH2 0x8AA DUP7 DUP4 PUSH2 0x863 JUMP JUMPDEST SWAP6 POP DUP1 NOT DUP5 AND SWAP4 POP DUP1 DUP7 AND DUP5 OR SWAP3 POP POP POP SWAP4 SWAP3 POP POP POP JUMP JUMPDEST PUSH1 0x0 DUP2 SWAP1 POP SWAP2 SWAP1 POP JUMP JUMPDEST PUSH1 0x0 PUSH2 0x8E7 PUSH2 0x8E2 PUSH2 0x8DD DUP5 PUSH2 0x439 JUMP JUMPDEST PUSH2 0x8C2 JUMP JUMPDEST PUSH2 0x439 JUMP JUMPDEST SWAP1 POP SWAP2 SWAP1 POP JUMP JUMPDEST PUSH1 0x0 DUP2 SWAP1 POP SWAP2 SWAP1 POP JUMP JUMPDEST PUSH2 0x901 DUP4 PUSH2 0x8CC JUMP JUMPDEST PUSH2 0x915 PUSH2 0x90D DUP3 PUSH2 0x8EE JUMP JUMPDEST DUP5 DUP5 SLOAD PUSH2 0x870 JUMP JUMPDEST DUP3 SSTORE POP POP POP POP JUMP JUMPDEST PUSH1 0x0 SWAP1 JUMP JUMPDEST PUSH2 0x92A PUSH2 0x91D JUMP JUMPDEST PUSH2 0x935 DUP2 DUP5 DUP5 PUSH2 0x8F8 JUMP JUMPDEST POP POP POP JUMP JUMPDEST JUMPDEST DUP2 DUP2 LT ISZERO PUSH2 0x959 JUMPI PUSH2 0x94E PUSH1 0x0 DUP3 PUSH2 0x922 JUMP JUMPDEST PUSH1 0x1 DUP2 ADD SWAP1 POP PUSH2 0x93B JUMP JUMPDEST POP POP JUMP JUMPDEST PUSH1 0x1F DUP3 GT ISZERO PUSH2 0x99E JUMPI PUSH2 0x96F DUP2 PUSH2 0x83E JUMP JUMPDEST PUSH2 0x978 DUP5 PUSH2 0x853 JUMP JUMPDEST DUP2 ADD PUSH1 0x20 DUP6 LT ISZERO PUSH2 0x987 JUMPI DUP2 SWAP1 POP JUMPDEST PUSH2 0x99B PUSH2 0x993 DUP6 PUSH2 0x853 JUMP JUMPDEST DUP4 ADD DUP3 PUSH2 0x93A JUMP JUMPDEST POP POP JUMPDEST POP POP POP JUMP JUMPDEST PUSH1 0x0 DUP3 DUP3 SHR SWAP1 POP SWAP3 SWAP2 POP POP JUMP JUMPDEST PUSH1 0x0 PUSH2 0x9C1 PUSH1 0x0 NOT DUP5 PUSH1 0x8 MUL PUSH2 0x9A3 JUMP JUMPDEST NOT DUP1 DUP4 AND SWAP2 POP POP SWAP3 SWAP2 POP POP JUMP JUMPDEST PUSH1 0x0 PUSH2 0x9DA DUP4 DUP4 PUSH2 0x9B0 JUMP JUMPDEST SWAP2 POP DUP3 PUSH1 0x2 MUL DUP3 OR SWAP1 POP SWAP3 SWAP2 POP POP JUMP JUMPDEST PUSH2 0x9F3 DUP3 PUSH2 0x510 JUMP JUMPDEST PUSH8 0xFFFFFFFFFFFFFFFF DUP2 GT ISZERO PUSH2 0xA0C JUMPI PUSH2 0xA0B PUSH2 0x5DA JUMP JUMPDEST JUMPDEST PUSH2 0xA16 DUP3 SLOAD PUSH2 0x80D JUMP JUMPDEST PUSH2 0xA21 DUP3 DUP3 DUP6 PUSH2 0x95D JUMP JUMPDEST PUSH1 0x0 PUSH1 0x20 SWAP1 POP PUSH1 0x1F DUP4 GT PUSH1 0x1 DUP2 EQ PUSH2 0xA54 JUMPI PUSH1 0x0 DUP5 ISZERO PUSH2 0xA42 JUMPI DUP3 DUP8 ADD MLOAD SWAP1 POP JUMPDEST PUSH2 0xA4C DUP6 DUP3 PUSH2 0x9CE JUMP JUMPDEST DUP7 SSTORE POP PUSH2 0xAB4 JUMP JUMPDEST PUSH1 0x1F NOT DUP5 AND PUSH2 0xA62 DUP7 PUSH2 0x83E JUMP JUMPDEST PUSH1 0x0 JUMPDEST DUP3 DUP2 LT ISZERO PUSH2 0xA8A JUMPI DUP5 DUP10 ADD MLOAD DUP3 SSTORE PUSH1 0x1 DUP3 ADD SWAP2 POP PUSH1 0x20 DUP6 ADD SWAP5 POP PUSH1 0x20 DUP2 ADD SWAP1 POP PUSH2 0xA65 JUMP JUMPDEST DUP7 DUP4 LT ISZERO PUSH2 0xAA7 JUMPI DUP5 DUP10 ADD MLOAD PUSH2 0xAA3 PUSH1 0x1F DUP10 AND DUP3 PUSH2 0x9B0 JUMP JUMPDEST DUP4 SSTORE POP JUMPDEST PUSH1 0x1 PUSH1 0x2 DUP9 MUL ADD DUP9 SSTORE POP POP POP JUMPDEST POP POP POP POP POP POP JUMP JUMPDEST PUSH1 0x0 DUP2 SWAP1 POP SWAP3 SWAP2 POP POP JUMP JUMPDEST PUSH1 0x0 PUSH2 0xAD2 DUP3 PUSH2 0x510 JUMP JUMPDEST PUSH2 0xADC DUP2 DUP6 PUSH2 0xABC JUMP JUMPDEST SWAP4 POP PUSH2 0xAEC DUP2 DUP6 PUSH1 0x20 DUP7 ADD PUSH2 0x52C JUMP JUMPDEST DUP1 DUP5 ADD SWAP2 POP POP SWAP3 SWAP2 POP POP JUMP JUMPDEST PUSH1 0x0 PUSH2 0xB04 DUP3 DUP5 PUSH2 0xAC7 JUMP JUMPDEST SWAP2 POP DUP2 SWAP1 POP SWAP3 SWAP2 POP POP JUMP INVALID LOG2 PUSH5 0x6970667358 0x22 SLT KECCAK256 REVERT SWAP11 ADDMOD 0xD0 SIGNEXTEND SWAP1 EQ BLOCKHASH 0xB0 PUSH28 0x3ACBC0CDBF88B06DE2101961E8C0C4D0A3BAE75B547464736F6C6343 STOP ADDMOD SLT STOP CALLER "
				},
				"gasEstimates": {
					"creation": {
						"codeDepositCost": "577000",
						"executionCost": "infinite",
						"totalCost": "infinite"
					},
					"external": {
						"add()": "404",
						"addPerson(uint256,string)": "infinite",
						"bytes32Var()": "2517",
						"favoriteNumber()": "2452",
						"isOpen()": "2516",
						"nameToFavoriteNumber(string)": "infinite",
						"people(uint256)": "infinite",
						"person()": "infinite",
						"retrieve()": "2438",
						"store(uint256)": "22609"
					}
				},
				"methodIdentifiers": {
					"add()": "4f2be91f",
					"addPerson(uint256,string)": "bc832d4e",
					"bytes32Var()": "ef0f3013",
					"favoriteNumber()": "471f7cdf",
					"isOpen()": "47535d7b",
					"nameToFavoriteNumber(string)": "8bab8dd5",
					"people(uint256)": "9e7a13ad",
					"person()": "77ec2b55",
					"retrieve()": "2e64cec1",
					"store(uint256)": "6057361d"
				}
			},
			"storageLayout": {
				"storage": [
					{
						"astId": 8,
						"contract": "contract/SimpleStorage.sol:SimpleStorage",
						"label": "favoriteNumber",
						"offset": 0,
						"slot": "0",
						"type": "t_uint256"
					},
					{
						"astId": 10,
						"contract": "contract/SimpleStorage.sol:SimpleStorage",
						"label": "isOpen",
						"offset": 0,
						"slot": "1",
						"type": "t_bool"
					},
					{
						"astId": 12,
						"contract": "contract/SimpleStorage.sol:SimpleStorage",
						"label": "bytes32Var",
						"offset": 0,
						"slot": "2",
						"type": "t_bytes32"
					},
					{
						"astId": 19,
						"contract": "contract/SimpleStorage.sol:SimpleStorage",
						"label": "person",
						"offset": 0,
						"slot": "3",
						"type": "t_struct(People)6_storage"
					},
					{
						"astId": 23,
						"contract": "contract/SimpleStorage.sol:SimpleStorage",
						"label": "people",
						"offset": 0,
						"slot": "5",
						"type": "t_array(t_struct(People)6_storage)dyn_storage"
					},
					{
						"astId": 27,
						"contract": "contract/SimpleStorage.sol:SimpleStorage",
						"label": "nameToFavoriteNumber",
						"offset": 0,
						"slot": "6",
						"type": "t_mapping(t_string_memory_ptr,t_uint256)"
					}
				],
				"types": {
					"t_array(t_struct(People)6_storage)dyn_storage": {
						"base": "t_struct(People)6_storage",
						"encoding": "dynamic_array",
						"label": "struct SimpleStorage.People[]",
						"numberOfBytes": "32"
					},
					"t_bool": {
						"encoding": "inplace",
						"label": "bool",
						"numberOfBytes": "1"
					},
					"t_bytes32": {
						"encoding": "inplace",
						"label": "bytes32",
						"numberOfBytes": "32"
					},
					"t_mapping(t_string_memory_ptr,t_uint256)": {
						"encoding": "mapping",
						"key": "t_string_memory_ptr",
						"label": "mapping(string => uint256)",
						"numberOfBytes": "32",
						"value": "t_uint256"
					},
					"t_string_memory_ptr": {
						"encoding": "bytes",
						"label": "string",
						"numberOfBytes": "32"
					},
					"t_string_storage": {
						"encoding": "bytes",
						"label": "string",
						"numberOfBytes": "32"
					},
					"t_struct(People)6_storage": {
						"encoding": "inplace",
						"label": "struct SimpleStorage.People",
						"members": [
							{
								"astId": 3,
								"contract": "contract/SimpleStorage.sol:SimpleStorage",
								"label": "favoriteNumber",
								"offset": 0,
								"slot": "0",
								"type": "t_uint256"
							},
							{
								"astId": 5,
								"contract": "contract/SimpleStorage.sol:SimpleStorage",
								"label": "name",
								"offset": 0,
								"slot": "1",
								"type": "t_string_storage"
							}
						],
						"numberOfBytes": "64"
					},
					"t_uint256": {
						"encoding": "inplace",
						"label": "uint256",
						"numberOfBytes": "32"
					}
				}
			},
			"userdoc": {
				"kind": "user",
				"methods": {},
				"version": 1
			}
		}
	}
}